:400000000080002011000000890100008901000008B5044B1A6803F53F5302331A6000F0CDF800BFFA46004010B5054C237833B9044B13B10448AFF300800123237010BD9E
:400040007881FF1F000000001814000008B5064B1BB106480649AFF300800648036813B1054B03B1984708BD00000000181400007C81FF1F0881FF1F0000000008B500F0E4
:40008000B7FA00F053FD08BD30B585B000F01EF80A4D02A800F044F8BDF90820BDF90A30BDF90C00009000242046294600F0B8FDC1B2204600F054FDEBE700BF7C14000044
:4000C00008B562B6FFF7DAFFFFF7DEFF30B583B000248DF8044070238DF8053000F0E6FC1E2001A90222234600F0FAFB00F0C2FC10F0010FFAD002258DF8045000248DF8DA
:40010000054000F0D3FC1E2001A92A46234600F0E7FB00F0AFFC10F0010FFAD003B030BD10B582B0044602A9062301F8083D1E2069460122002300F0D3FB00F09BFC10F048
:40014000010FFAD01E2069460622002300F02CFC00F090FC10F0010FFAD09DF80030237002A9032301F8083D1E2069460122002300F0B6FB00F07EFC10F0010FFAD000F090
:4001800079FC02B010BD00BFFEE700BF08B5094B1B681844084A821A802A02DC054A106005E000F0FFFC0C2303604FF0FF33184608BD00BF0C81FF1FB881FF1F80B5104F78
:4001C000104E002415E031687368B568224604E051F8040B43F8040B0432AA42F8D1F168224602E043F8044B04328A42FAD11036013F002FE7D100F0DBFCFFF761FFFEE7B5
:40020000010000003815000010B5124A124B1A6008331A6842F400721A6000230F48104C104908E0032B02D854F8232000E0024641F8232001332F2BF4D90B4B1A780B4BAE
:400240001A70084A0A4B1A6000F0BAF80022094B1A6010BD0004FA050CED00E089010000000000000080FF1FBC7600400481FF1F08ED00E00081FF1FFEE700BFF0B400237C
:400280001F4611E050F82760F2B226F0FF0608E001EB430511F813406D78A5550133013AD2B2002AF4D10137202FEBD9F0BC7047064B1B78DBB203F00701054A11701B0913
:4002C000013213704422034B1A707047CF0100496E5800407658004008B50A46002100F096FC08BDF8B501222A4B1A8018232A4A13700025023215801924023214704FF47A
:400300009C7102321180023213700222234B1A7008234FF040221370032102F5007211701F4A1178C9B21F4A1170A2F27F42138041F251221C4B1A801C4F4FF4F0760AE0D7
:400340003B7803F0010343EA450505F00305304600F0C6F8013C0CB1032DF1D114B90320FFF78AFF124B4FF480721A8007221A70002210490A704820023108701A7002224B
:40038000033B1A7003F2A1331A7842F007021A70F8BD00BF80400040824000400043004008010049A14600402042004025420040044000400640004008B500F01FFC08BD03
:4003C00038B572B6334B1A7842F004021A700024314D09E004EB44035B002B4418689988FFF77AFF0134E4B2082CF3D900242B4D0AE004EB84035B002B44186859681A8906
:40040000FFF7DAFF0134E4B2002CF2D04FF090402349FFF733FF234B1A7842F002021A7010331A7842F002021A701F4C237843F0400323701D4B1A7842F010021A701C4801
:400440001C490822FFF7B8FF1B481C490A22FFF7B3FF1B481B490822FFF7AEFF1A481B490A22FFF7A9FF1A4B1A7842F008021A70184D61232B70FFF735FF81232B700122B3
:40048000154B1A70FFF714FF144821460E22FFF793FF38BDE846004098140000D01400008400004803500140A0430040C24300400251004048080048C051004050080048F7
:4004C000425100405C0800486051004064080048224300400048004004000840B04300400230800800F0058000BF013800467FF4FCAF7047EFF3108072B6704780F310888E
:40050000704700BFAFF3008001BE704770B505460E46074B1C681F2802D90020FFF7F4FF05F01F05103554F8250044F8256070BD08ED00E038B505460C46072902D90020A1
:40054000FFF7E2FF1F2D02D90020FFF7DDFF05F01F0000F1604000F564406401E4B2047038BD00BF38B50222114B1A7081220E3B1A70082202331A700F2511331D700024AB
:4005800001331C704FF400420A4B1A6028460721FFF7D0FF28460849FFF7B8FF1022074B1A70074B1C70074B1C70074B1C7038BDD649004080E100E019060000A081FF1FC5
:4005C000A681FF1FAE81FF1FA481FF1F08B5FFF791FF064B1A7842F004021A7010331A7842F004021A70FFF789FF08BDA543004008B5074B1B7823B9FFF7B4FF0122044BA3
:400600001A70FFF7E3FF4FF40042024B1A6008BD9481FF1F00E100E038B5A44B1C78E4B2A34B1B7813F0400F00F0378114F0010F00F01B819E4B1B78453B052B00F2128181
:40064000DFE813F006008200100110010600DE0004F0DF0504F00A04082C42D1944B1B78DBB2452B35D1934B1B7813F0FF0F10D0914B1B681A78D2B2904B1A700422013BEE
:400680001A7001228E4B1A704622894B1A702C46EBE08C4B1B7813F0020F0DD08A4B1A7842F00A021A706022814B1A704FF40042864B1A602C46D8E0854B1A7842F0100225
:4006C0001A70102203331A700422023B1A702C46CBE00022754B1A704A22754B1A702C46C3E00A2C2BD1784B1A7842F0A0021A70744B1B7813F0020F14D06D4B1B7813F0C0
:40070000080F01D0092100E00A216F4B1A780A431A706022664B1A704FF400426B4B1A602C46A2E06A4B1A7842F010021A70102203331A700422023B1A702C4695E0002018
:40074000FFF7E2FE2C4690E014F0020F35D15C4B1A78584B1B78D2B29A4210D2584B1A78D2B255490968895CC9B2544A11700421013A11701A780132D2B21A7075E0514B09
:400780001B7813F0020F0CD04F4B1A7842F00A021A706022464B1A704FF400424B4B1A6063E04B4B1A7842F010021A70102203331A700422023B1A7057E0424B1B7813F01E
:4007C000020F0CD0404B1A7842F09A021A706022374B1A704FF400423C4B1A6045E03C4B1A7842F010021A70102203331A700422023B1A70344B1A7842F090021A7034E025
:40080000344B1A78D2B2344909682C480078C0B288541A780132D2B21A701A782F4B1B78D2B29A4203D21022204B1A701DE0254B1B7813F0020F0CD0234B1A7842F0090200
:400840001A7060221A4B1A704FF400421F4B1A600BE01F4B1A7842F010021A70002201331A7002E00020FFF74FFE14F0200F1CD00F4B1B7813F0080F01D0012200E002221C
:40088000114B19780A431A70114B1A7802F0EF021A701022064B1A7038BD054B1B7813F0100F02D11022024B1A7038BDD7490040A081FF1FA581FF1FB081FF1FD8490040AE
:4008C000A481FF1FAC81FF1FA681FF1F80E100E0D6490040AE81FF1FA881FF1FAD81FF1F70B40D46002946D0254C2478E4B2102C06D12449097811F0080F11D1002412E03B
:400900001F490978C9B260290CD14FF400441E490C601E490C7804F0F7040C70002402E0012400E002243CBB452615490E70002617490E7017490A70174A1560174A137036
:40094000124A117801F0FD0111704000C0B2144A107013F0010F06D012220A4B1A700422023B1A7002E00122064B1A704FF400420C4B1A6000E00224204670BC704700BF65
:40098000A081FF1FD949004080E200E0A681FF1FA481FF1FA581FF1FB081FF1FAC81FF1FD849004000E100E070B40D46002948D0264C2478E4B2102C06D12549097811F06D
:4009C000080F11D1002412E020490978C9B260290CD14FF400441F490C601F490C7804F0F7040C70002402E0012400E002244CBB492616490E70002618490E7018490A7007
:400A0000184A1560184A1370134A117801F0FE0111704000C0B240F00100144A107013F0010F06D012220A4B1A700422023B1A7002E00122064B1A704FF400420C4B1A60C3
:400A400000E00224204670BC704700BFA081FF1FD949004080E200E0A681FF1FAE81FF1FAD81FF1FA881FF1FAC81FF1FD849004000E100E04FF40042084B1A60084B1878BE
:400A8000C0B2084B1B7813F0400F01D040F004004FF40042044B1A60704700BF80E100E0A681FF1FA081FF1F00E100E04FF40043044A1360044A107800211170034A1360BE
:400AC000704700BF80E100E0A681FF1F00E100E07222074B1A702022043B1A700622A4331A70472210331A7000224F331A7070478764004010B5FFF7FDFC04460A4B1A780A
:400B000042F020021A70043B1A7842F010021A7003F203131A7842F010021A7000F034F82046FFF7EBFC10BD9764004008B5054B1B7823B9FFF7CCFF0122024B1A70FFF739
:400B4000D9FF08BD9581FF1F034A137813F0040FFBD1024B18707047666500404665004070B506460D46074B1B7833B970BD305DFFF7EAFF0134E4B200E00024AC42F6D3B4
:400B800070BD00BF9581FF1F054B1A7842F004021A7010331A7842F004021A70704700BFA2430040014B1868704700BF7081FF1F70B50E4B0E4D0024ED1AAD101E46AC42DB
:400BC00004D056F8242090470134F8E700F0A2FC084D094B0024ED1AAD101E46AC4204D056F8242090470134F8E770BD2015000020150000281500002015000010B50023F1
:400C0000934203D0CC5CC4540133F9E710BD02440346934202D003F8011BFAE7704700000EB400B54FF402719CB0ADF814106FF00041049107914FF6FF711DABADF81610AF
:400C4000084953F8042B02900690086802A9019300F066F8029B00221A701CB05DF804EB03B070477081FF1F2DE9F0478D688146AB420C4692461F4643D38B8913F4906FFD
:400C80003DD0266809690222C1EB0608666906EB460696FBF2F608F101023A44964238BF16465B050FD5314600F01AFB054698B121694246FFF7A2FFA38923F4906343F0B9
:400CC0008003A38113E0324600F05EFB054670B94846216900F0C0FA0C23C9F80030A3894FF0FF3043F04003A381BDE8F087256166614544C8EB06062560A6603D46AF425F
:400D000000D23D462A462068514600F089FAA36800205B1BA36023681D442560BDE8F0872DE9F0439DB003938B8907461C060D4616460CD50B6953B9402100F0D1FA2860C8
:400D4000286110B90C233B60C7E040236B610023099320238DF8293030238DF82A3033461C4613F8012B1AB9B4EB06090FD002E0252AF5D1F8E73846294632464B46FFF73B
:400D800073FF013000F0A480099B4B4409932378002B00F09D8000234FF0FF3204930793059206938DF853301A9304F101094D4E4C4630462178052200F024FA09F10109BD
:400DC000049B28B1861B0120B04003430493EEE7D90644BF20228DF853201A0744BF2B228DF8532022782A2A02D0079B21460EE0039A111D12680391002A01DB079204E07F
:400E0000524243F002030792049301340AE00C4622780131303A092A03D80A2000FB0323F5E7079323782E2B19D163782A2B09D1039B02341A1D1B680392002BB8BF4FF054
:400E4000FF330BE0611C00230C4622780131303A092A03D80A2000FB0323F5E70593224E21783046032200F0CDF930B1861B4020B040049B01340343049321781B4806225F
:400E8000661C8DF8281000F0BDF988B1184B33B9039B073323F007030833039314E003AB0093384604A92A46124BAFF3008007E003AB0093384604A92A460E4B00F08EF81E
:400EC000B0F1FF3F804603D0099B4344099346E7AB895B0601D4099801E04FF0FF301DB0BDE8F083DE140000E4140000E814000000000000690C00002DE9F84315461F46DB
:400F00008A680B6906469A42A8BF13462B6091F843200C46DDF820800AB101332B602368990602D52B6802332B60236813F006091DD094F843302268003318BF012392067E
:400F40001FD5E118302081F843005A1C94F845102244023382F8431013E03046394604F119020123C047013007D009F10109E2682B68D31A9945F0DBDBE74FF0FF30BDE842
:400F8000F8833046394604F14302C0470130F4D023682A6803F00603E168042B08BFC2EB01052369A2680CBF25EAE57500259A42C4BFC3EB0203ED184FF00009A9450ADA60
:400FC0003046394604F11A020123C0470130D4D009F10109F2E70020BDE8F8832DE9FF470E7E80466E2E0C4691469A460C9D01F1430000F0A58011D8632E22D009D8002E0D
:4010000000F0AF80582E40F0BF8081F845607B4A4FE0642E1ED0692E1CD0B5E0732E00F0A48009D86F2E2BD0702E40F0AD800B6843F020030B6038E0752E21D0782E34D03F
:40104000A2E02B6801F142071A1D1B682A6081F842309DE022682B6812F0800F03D01A1D2A601D6805E05106F9D51A1D2A60B3F90050002D39DA2D236D4284F8433034E0A4
:4010800022682B6812F0800F03D01A1D2A601D6804E05206F9D51A1D2A601D88237E574A6F2B14BF0A2308231BE07823544A84F845302368296813F0800F01F104062E6095
:4010C00001D00D6802E05F06FBD50D88DE0744BF43F0200323601DB9236823F0200323601023002184F8431001E0444A0A236668002EA66003DB216821F00401216005B9A6
:401100006EB104F14201B5FBF3F603FB1655555D0F4601F801593546002EF4D100E00746082B0AD12368DD0707D5626823699A4203DC302307F8013C013FC01B20612CE0C0
:4011400009682B6811F0800F626904D0191D29601B681A6005E04906F8D5191D29601B681A8000232361074617E02B681A1D2A601F68384600F03EF963682061984288BFCB
:4011800023612369636005E004F1420784F8426001232361002384F84330CDF800A04046214603AA4B46FFF7A7FE013002D14FF0FF301FE0404649463A462369D04701305C
:4011C000F5D023689B0705D4E068039B9842B8BF18460FE00025E268039BD31A9D42F3DA4046494604F119020123D0470130DED00135F0E704B0BDE8F08700BFEF1400001C
:401200000015000010B5C9B202449042034605D01C7801308C42F8D1184610BD002010BD814270B501D300230EE08C18A042FAD28518134613F1FF3305D351426618F65C29
:401240002944CE54F6E770BD934203D0CC5CC4540133F9E770BD000030B500293CD051F8042C0B1F1D49002AB8BF9B180A680C4612B95A600B6030BD93420DD219685818EF
:40128000904203D15A581144426819605A60236030BD994203D80A4651680029F9D1146815199D420AD11B682344D0188842136012D10868034413604B680CE002D90C2359
:4012C000036030BD18681C188C4203D10C684968204418605960536030BD00BF9C81FF1F70B5CD1C25F0030508350C2D38BF0C25002D06463FDB8D423DD3214B1C6818466B
:401300002146A1B10B685B1B0ED40B2B03D90B60CC18CD501FE08C4202D1626802601AE04B6863600C4616E00C464968E9E7154C23681BB9304600F04DF820602946304684
:4013400000F048F8431C014615D0C41C24F0030484420AD1256004F10B00231D20F00700C31A0BD05A42E25070BD3046611A00F031F80130EED10C233360002070BD00BFBF
:401380009C81FF1F9881FF1FF8B5064614460D4621B91146BDE8F840FFF7A2BF1AB9FFF75BFF2046F8BD00F02DF8A0420ED230462146FFF795FF074650B129462246FFF719
:4013C0001DFC30462946FFF747FF01E02846F8BD3846F8BD38B5064C0023054608462360FEF7D4FE431C02D1236803B12B6038BDB481FF1F034613F8012B002AFBD1181A4B
:401400000138704751F8040C002802DA04390B5818440438704700000000000048656C6C6F20576F726C642E205468697320697320616E20554152542054455354206361E3
:401440006E20796F7520736565206D652E000000506C656173652073656E64206D65206461746120616E6420492077696C6C204563686F206974206261636B00583A20257C
:4014800064200A0D20593A202564200A0D205A3A202564200A0D0000C84900401900105100403000505100401000F05100401000000001400010001401400008004001407E
:4014C000000A004C0140000200500140200000006052004040080048060000004300232D302B2000686C4C0065666745464700303132333435363738394142434445460046
:401500003031323334353637383961626364656600000000F8B500BFF8BC08BC9E4670474D00000009020000F8B500BFF8BC08BC9E46704729000000481500000881FF1FC6
:40154000700000004000000000000000B881FF1F0000000000000000000000000000000000000000000000000000000000000000DC14000000000000000000000000000074
:401580000000000000000000000000000000000000000000000000000000000000000000000000000000000000000000000000001081FF1F0000000000000000000000007C
:4015C00000000000000000000000000000000000000000000000000000000000000000000000000000000000000000000000000000000000000000000000000000000000EB
:4016000000000000000000000000000000000000000000000000000000000000000000000000000000000000000000000000000000000000000000000000000000000000AA
:40164000000000000000000000000000000000000000000000000000000000000000000000000000000000000000000000000000000000000000000000000000000000006A
:40168000000000000000000000000000000000000000000000000000000000000000000000000000000000000000000000000000000000000000000000000000000000002A
:020000040003F7
:0200000480007A
:40000000055200400664004001650040520001402D0101404D0201403103014063040140480501403F06014037070140390C0140210D0140430E0140270F01400115014042
:400040005716014040170140011B014006400140074101400842014003430140134401400E450140044601400447014001480140024901400B4C0140014D014006500140A4
:400080000151014001102104305231603403810F820F833887728D0D8F0D860F020203011A022E013202340137013E044010410249FF4AFF4BFF4DA04F0450185280580413
:4000C00059045A045B045C115D115F01604062C06440654066C068C06AC06CC06EC08204830887038E029201930494019501A202AA04AB04AF08B001B104B202B308B40409
:40010000B502B701C010C102C5D0C620C715C83AC9FFCAFFCBFFCDAFCE0FCF04D018D407D804D904DA04DB04DC11DD11DF01E040E2C0E440E540E6C0E8C0EAC0ECC0EEC08C
:4001400000010401070209200C020F201002164819081B101C081E801F0420012180268427442C022F08370638023C013E084001412045A04D015402552056085D195E80E1
:400180007001851086808B04C098C232C451CA30CCC0CEC1D03CD6F0E28002040E021C0422022301260128012B02300132043302340237013E105407580459045B045C11C7
:4001C0005D105F018404862088028A208C068E10920694079A079B029E07A608A702A807AE08AF01B006B201B408B502B630B701B808BE50BF10C024C103C205C401C50E00
:40020000C6C0C809C9FFCAFFCBFFCC62CDA0CEF0CF41D00CD418D804D904DA04DB04DC12DD22DF01E640E702E910EA30EB10ED10EE10EF1201A003200642080809420B0805
:400240000D801020120A16201712180119091A081EA8200223062580271029082A802C802E202F083220401941234A22502059015D015EA863069E409F02A708AC04B60446
:40028000B740C097C28FC477CAAACC04D00FD208D6F1D80CEA500107040205060701080F09020C031203130114031507160C180F1C081D042001210123062404280C29064F
:4002C0002C0C2E03300F31073A0A4050410449FF4AFF4BFF4DA04F0450185280580459045A045B045C225D115F01604062C06440654066C068C06AC06CC06EC08108830104
:40030000853E88018D0E8F309138930497089930A120A510A938AB02AF06B401B501B73EBB80BE10C050C101C5D0C605C721C836C9FFCAFFCBFFCDAFCE0FCF04D018D804CA
:40034000D904DA04DC20DD01DF01E040E2C0E440E540E6C0E8C0EAC0ECC0EEC00010018002080320042008090A010B080C010D011024118212101328181019021A601B047F
:400380001D202202240225402705280429022C612E012F0430413208372538023A103B083D023E403F084302460248014B404D014F4054805642570A728081209410950333
:4003C0009640970898089DA09EC2A001A480A540A60AA728A920AA40AE04AF01C047C20FC40FCAF5CCEBCED7D011D218000402180418050306040704090A0A010B040C01EB
:40040000110312041304141C18181A041C101D031F0C200123052408270828182C02310F321C340338203A083B02580459045C225F0184128501860589018C048E1890202A
:400440009101942098209C20A009A206A41FA81FB020B101B403B61CBE01D602D713D804D904DB04DC22DD20DF0101800320049005020610081009400A600B180C100D017B
:400480000E010F1011161602172919811B201C081E041F042101248027402C802E0630023401374139143C103F04590168026914720173289260942095029601970899022C
:4004C0009D809F28A141A720A921C0F5C2FFC4FECAC0CC91CE66D6014050410249FF4AFF4BFF4DA04F0450185A045F01604062C06440654066C068C06AC06CC06EC09B01EE
:400500009E01A101A202A604AA01B004B401B602B701BE10C010C106C5D1C702C813C9FFCAFFCBFFCDAFCE0FCF04D018D405D804D904DA04DB04DF01E040E2C0E440E54060
:40054000E6C0E8C0EAC0ECC0EEC00A0110201204130219021A051B4022402902302042014604482849014F805008520459015A8468146B0288149601A420A909C201C40E2E
:40058000CA01CC04D028D214D60BE8050B0117011E0126012E023001320233014030410649FF4AFF4BFF4DA04F045018580459045A045B045F01604062C06440654066C080
:4005C00068C06AC06CC06EC08A028B01A101A601AA02B101B402B601BE10C030C102C5D0C610C702C81AC9FFCAFFCBFFCDAFCE0FCF04D018D405D804D904DA04DB04DF01EE
:40060000E040E2C0E440E540E6C0E8C0EAC0ECC0EEC004100A0110221628181019011E081F80210827802F8033043A203E20401043044608470448044F01540456285E0851
:400640005F81680269046B0887088904C040C201C465CA80CC02CE24D062D204D6D0E008EA0101010512072009280A01100111181322153817041A011B061E012120231893
:4006800029202C013001333E35013E013F104042410145EC46B0480B49FF4AFF4BFF4EF04F44500C5401580459045A045B045C205D225F0166C06A406B0280318206860CEA
:4006C000882C8A038B029031920E93039B069F05A213A301A506A608A701B107B20FB430B820BA08BB02BE10C002C640C9FFCA07CBFFCC40CD20CEF0CF05D008D804D904CD
:40070000DA04DC22DD02DF01E040E1A8E240E3200018024003600410082109020B040C800D020F0410A01740181019041A041E8021022424272029042B802C402D103040E3
:400740003102336034013504372039103B203C083D013E2042044401452046404D014F0450A0539056205C245D015E8080808120943097049B409C01A004A480AD40AE1063
:40078000C04EC2D8C48CCAA3CCEDCEE4D0B4D6F0EA0152205A8063028B01D4A0D6406308A304AE20B640B704D840EE4007403E1057408340C020CE20D440E2209610AB4032
:4007C000EC8002200502510454205F0860806240674070087F0287028880C00CD406D603D803DC01DE04E0048A408B409508974098089E40A220A420A808AB08B008B102A9
:40080000E004E40195089808A220A42095089808A220A4209610AA10EA8010201320150878087E2095089808A220A420C40EDE03AB20000708060A060E0110041A0403C097
:40084000140400000800000000101000100000000400083434003400000000000085850085000000030000F0F300F300000000000000000000000000000000000000000018
:400880000000000000000000000000000000000000000000000000000000000000000000000000000000000000000000000000000000000000000000000000000000000038
:4008C00000000000000000000000000000000000000000000000000000000000000000000000000000000000000000000000000000000000000000000000000000000000F8
:4009000000000000000000000000000000000000000000000000000000000000000000000000000000000000000000000000000000000000000000000000000000000000B7
:400940000000000000000000000000000000000000000000000000000000000000000000000000000000000000000000000000000000000000000000000000000000000077
:0200000490006A
:0400000000004005B7
:0200000490105A
:04000000BC90ACAF55
:0200000490303A
:020000002C3D95
:0200000490402A
:4000000000000000000000000000000000000000000000000000000000000000000000000000000000000000000000000000000000000000000000000000000000000000C0
:400040000000000000000000000000000000000000000000000000000000000000000000000000000000000000000000000000000000000000000000000000000000000080
:400080000000000000000000000000000000000000000000000000000000000000000000000000000000000000000000000000000000000000000000000000000000000040
:4000C0000000000000000000000000000000000000000000000000000000000000000000000000000000000000000000000000000000000000000000000000000000000000
:0200000490501A
:0C00000000012E16006900012E202CA625
:00000001FF