:400000000080002011000000690200006902000008B5044B1A6803F53F5302331A6000F03DF900BFFA46004010B5054C237833B9044B13B10448AFF300800123237010BD6B
:400040008881FF1F000000001027000008B5064B1BB106480649AFF300800648036813B1054B03B1984708BD00000000102700008C81FF1F0881FF1F0000000008B500F0AE
:4000800065FB00F0FFFA00F0B5FC00F035FC00F005FD00F095FF08BD2DE9F04190B0124800F0A8FF00F02CF80026002700240F4DDFF83C8000F080F832463B4601F07AFA48
:4000C00022462B4601F028FC01F0C0FE024601A8414601F021FFC1B201A800F09DFF432000F058FBE6E700BF78270000000024408427000008B562B6FFF7C0FFFFF7CCFF07
:4001000008B51E20002100F041FE002000F0D0FE702000F0CDFE00F0AFFE1E20002100F035FE022000F0C4FE002000F0C1FE00F0A3FE432000F02EFB08BD00BF2DE9F04FA3
:4001400083B081460E4601921E20002100F01EFE032000F0ADFE062000F01CFB1E20012100F054FE012000F0CFFE8346012000F0CBFE8246012000F0C7FE0546012000F02B
:40018000C3FE0446012000F0BFFE8046002000F0BBFE074600F070FE4AEA0B2AA9F800A047EA0827378044EA0524019B1C8003B0BDE8F08F0000000030B583B00DF10600E9
:4001C00001A90DF10202FFF7B9FFBDF8060001F02DFB0022224B01F09FFB04460D46BDF8040001F023FB00221D4B01F095FB22462B4600F033FF04460D460022002301F079
:40020000FDFD40B12046294611A3D3E9002301F0D1F904460D46204629460DA3D3E9002301F00AFE40B12046294609A3D3E9002301F0BEF904460D462046294606A3D3E9E6
:40024000002301F069FB03B030BD00BFAFF30080182D4454FB211940F8C1631ADCA54C4000002440AFF30080FEE700BF08B5094B1B681844084A821A802A02DC054A1060A1
:4002800005E001F00BFE0C2303604FF0FF33184608BD00BF0C81FF1FD081FF1F80B5104F104E002415E031687368B568224604E051F8040B43F8040B0432AA42F8D1F16892
:4002C000224602E043F8044B04328A42FAD11036013F002FE7D101F0E7FDFFF70BFFFEE7010000007428000010B5124A124B1A6008331A6842F400721A6000230F48104CEC
:40030000104908E0032B02D854F8232000E0024641F8232001332F2BF4D90B4B1A780B4B1A70084A0A4B1A6000F0BAF80022094B1A6010BD0004FA050CED00E06902000057
:40034000000000000080FF1FBC7600400481FF1F08ED00E00081FF1FFEE700BFF0B400231F4611E050F82760F2B226F0FF0608E001EB430511F813406D78A5550133013A41
:40038000D2B2002AF4D10137212FEBD9F0BC7047064B1B78DBB203F00701054A11701B09013213704422034B1A707047CF0100496E5800407658004008B50A46002101F0C4
:4003C000A2FD08BDF8B501222A4B1A8018232A4A13700025023215801924023214704FF49C7102321180023213700222234B1A7008234FF040221370032102F50072117060
:400400001F4A1178C9B21F4A1170A2F27F42138041F251221C4B1A801C4F4FF4F0760AE03B7803F0010343EA450505F00305304600F09AF9013C0CB1032DF1D114B90320E5
:40044000FFF78AFF124B4FF480721A8007221A70002210490A704820023108701A700222033B1A7003F2A1331A7842F007021A70F8BD00BF80400040824000400043004087
:4004800008010049A14600402042004025420040044000400640004008B501F02BFD08BD38B572B6364B1A7842F004021A700024344D09E004EB44035B002B4418689988BC
:4004C000FFF77AFF0134E4B2082CF3D900242E4D0AE004EB84035B002B44186859681A89FFF7DAFF0134E4B2002CF2D04FF090402649FFF733FF264B1A7842F002021A7024
:4005000010331A7842F002021A70224C237843F040032370204B1A7842F010021A701F481F490822FFF7B8FF1E481F490822FFF7B3FF1E481E490822FFF7AEFF1D481E499D
:400540000A22FFF7A9FF1D481D490A22FFF7A4FF1C4B1A7842F008021A701B4D61232B70FFF730FF81232B700122184B1A70FFF70FFF174821460E22FFF78EFF38BD00BF36
:40058000E846004094270000CC2700008800004803500140A0430040C243004002510040B0070048C2510040B8070048F2510040C007004820510040C8070048605100401C
:4005C000D4070048224300400048004004000840B0430040014B1880704700BF12680040014B1880704700BF92680040014B1880704700BF52680040014B1870704700BFE6
:4006000089640040014B1878704700BF69640040014B188880B27047B268004008B501E0FFF7F6FFFFF7EEFF10F0100FF8D108BD10B5124C237843F001032370104B1A7871
:4006400042F001021A704EF66020FFF7C3FF4EF66020FFF7C5FF47F23050FFF7C7FF0020FFF7CAFF00F08AF8237843F01003237000F088F8FFF7D2FF10BD00BF9964004087
:400680009A64004008B5044B1B7823B9FFF7D0FF0122014B1A7008BDA481FF1F014B1880704700BF1C680040014B1880704700BF9C680040014B1880704700BF5C680040A1
:4006C000014B1870704700BF8F640040014B1878704700BF6F640040014B188880B27047BC68004008B501E0FFF7F6FFFFF7EEFF10F0100FF8D108BD10B5124B1A7842F0E0
:4007000001021A70104C237843F0010323704EF66020FFF7C3FF4EF66020FFF7C5FF47F23050FFF7C7FF0020FFF7CAFF00F026F8237843F01003237000F024F8FFF7D2FFC8
:4007400010BD00BF9E6400409F64004008B5044B1B7823B9FFF7D0FF0122014B1A7008BDA581FF1F000000000230800800F0058000BF013800467FF4FCAF7047EFF3108072
:4007800072B6704780F31088704700BFAFF3008001BE704738B50446084D04E02868FFF7E3FFA4F50044B4F5004FF7D8034B586800FB04F0FFF7D8FF38BD00BF1081FF1F98
:4007C00070B505460E46074B1C681F2802D90020FFF7DEFF05F01F05103554F8250044F8256070BD08ED00E038B505460C46072902D90020FFF7CCFF1F2D02D90020FFF705
:40080000C7FF05F01F0000F1604000F564406401E4B2047038BD00BF024B1A7842F080021A70704775640040014B1880704700BF08680040014B1880704700BF8868004010
:40084000014B1880704700BF48680040014B1880704700BF68680040014B1870704700BF85640040014B1878704700BF65640040014B188880B27047A868004008B501E033
:40088000FFF7F6FFFFF7EEFF10F0100FF8D108BD10B5174B1A7802F0C00242F009021A701F331A7842F001021A70124C237843F0010323704EF66020FFF7B6FF4EF66020F0
:4008C000FFF7B8FF47F23050FFF7BAFF47F23050FFF7BCFF0020FFF7BFFFFFF74FFF237843F010032370FFF74DFFFFF7C7FF10BD756400409564004008B5054B1B7823B954
:40090000FFF7C6FF0122024B1A70FFF785FF08BDA681FF1F024B1A7842F080021A70704773640040014B1880704700BF04680040014B1880704700BF84680040014B188023
:40094000704700BF44680040014B1880704700BF64680040014B1870704700BF83640040014B1878704700BF63640040014B188880B27047A468004008B501E0FFF7F6FF3B
:40098000FFF7EEFF10F0100FF8D108BD10B5174B1A7802F0C00242F009021A701F331A7842F001021A70124C237843F0010323704EF66020FFF7B6FF4EF66020FFF7B8FF2D
:4009C00041F27070FFF7BAFF41F27070FFF7BCFF0020FFF7BFFFFFF7D1FE237843F010032370FFF7CFFEFFF7C7FF10BD736400409364004008B5054B1B7823B9FFF7C6FF93
:400A00000122024B1A70FFF785FF08BDA781FF1F38B50622114B1A7081220E3B1A70082202331A700F2511331D70002401331C704FF400420A4B1A6028460721FFF7D4FE42
:400A400028460849FFF7BCFE1022074B1A70074B1C70074B1C70074B1C7038BDD649004080E100E0C50A0000B481FF1FBA81FF1FC281FF1FB881FF1F08B5FFF77FFE064B16
:400A80001A7842F004021A7010331A7842F004021A70FFF777FE08BDA543004008B5074B1B7823B9FFF7B4FF0122044B1A70FFF7E3FF4FF40042024B1A6008BDA881FF1FA0
:400AC00000E100E038B5A44B1C78E4B2A34B1B7813F0400F00F0378114F0010F00F01B819E4B1B78453B052B00F21281DFE813F006008200100110010600DE0004F0DF0533
:400B000004F00A04082C42D1944B1B78DBB2452B35D1934B1B7813F0FF0F10D0914B1B681A78D2B2904B1A700422013B1A7001228E4B1A704622894B1A702C46EBE08C4B6F
:400B40001B7813F0020F0DD08A4B1A7842F00A021A706022814B1A704FF40042864B1A602C46D8E0854B1A7842F010021A70102203331A700422023B1A702C46CBE00022A2
:400B8000754B1A704A22754B1A702C46C3E00A2C2BD1784B1A7842F0A0021A70744B1B7813F0020F14D06D4B1B7813F0080F01D0092100E00A216F4B1A780A431A706022E1
:400BC000664B1A704FF400426B4B1A602C46A2E06A4B1A7842F010021A70102203331A700422023B1A702C4695E00020FFF7D0FD2C4690E014F0020F35D15C4B1A78584B7A
:400C00001B78D2B29A4210D2584B1A78D2B255490968895CC9B2544A11700421013A11701A780132D2B21A7075E0514B1B7813F0020F0CD04F4B1A7842F00A021A706022FA
:400C4000464B1A704FF400424B4B1A6063E04B4B1A7842F010021A70102203331A700422023B1A7057E0424B1B7813F0020F0CD0404B1A7842F09A021A706022374B1A7062
:400C80004FF400423C4B1A6045E03C4B1A7842F010021A70102203331A700422023B1A70344B1A7842F090021A7034E0344B1A78D2B2344909682C480078C0B288541A7801
:400CC0000132D2B21A701A782F4B1B78D2B29A4203D21022204B1A701DE0254B1B7813F0020F0CD0234B1A7842F009021A7060221A4B1A704FF400421F4B1A600BE01F4BD2
:400D00001A7842F010021A70002201331A7002E00020FFF73DFD14F0200F1CD00F4B1B7813F0080F01D0012200E00222114B19780A431A70114B1A7802F0EF021A701022D2
:400D4000064B1A7038BD054B1B7813F0100F02D11022024B1A7038BDD7490040B481FF1FB981FF1FC481FF1FD8490040B881FF1FC081FF1FBA81FF1F80E100E0D64900404F
:400D8000C281FF1FBC81FF1FC181FF1F1A4B1B78DBB2102B29D1194B1B7813F0080F26D14FF40042164B1A604000C0B229B140F001004922104B1A7002E045220E4B1A70BC
:400DC000104B1870012201331A700F4A137813F0010FFBD00C4B1B7803F00A030A2B08D11022054B1A700320704702207047012070470020704700BFB481FF1FD949004093
:400E000080E100E0D8490040D7490040164B1B7813F0040F23D04000C0B229B140F001004922124B1A7002E04522104B1A70104B1870122201331A700422023B1A701A4654
:400E4000137813F0010FFBD00A4B1B7803F00A030A2B06D11022054B1A7003207047022070470020704700BFD9490040B481FF1FD8490040D74900400A4B1B7813F0040F4C
:400E80000ED01023074A13700421023A1170064A1370064A137813F0210FFBD00020704702207047D9490040B481FF1FD7490040114B1B7813F0040F1BD0104B1870042201
:400EC000013B1A7046220E4B1A700E4A137813F0010FFBD00B4B1B7813F0020F04D16022074B1A70002070476022054B1A70032070470220704700BFD9490040D849004088
:400F0000B481FF1FD74900400146114B1B7813F0040F1BD00F4B1B78DBB2492B05D100220D4B1A704A220B4B1A700B4A137813F0010FFBD0094B1878C0B219B11022013B67
:400F40001A7070476022034B1A70704700207047D9490040B481FF1FD7490040D84900407222084B1A70202201331A700622643B1A70472210331A70002203F5A8731A701B
:400F8000704700BF8B64004010B5FFF7F7FB04460A4B1A7842F020021A7001331A7842F010021A70FC331A7842F010021A7000F047F82046FFF7E6FB10BD00BF9B64004076
:400FC00008B5054B1B7823B9FFF7CAFF0122024B1A70FFF7D9FF08BDA981FF1F034A137813F0040FFBD1024B18707047686500404865004038B50546064B1B782BB938BDAC
:40100000FFF7ECFF0134A4B200E00024285D0028F6D138BDA981FF1F70B506460D46074B1B7833B970BD305DFFF7D8FF0134E4B200E00024AC42F6D370BD00BFA981FF1FB9
:40104000054B1A7842F004021A7010331A7842F004021A70704700BFA243004000F000B82DE9F047C2F1000949EA020923F00048DFF8D4C148EAD97982B0E14514461D464B
:40108000CDE900010F4647D8C0F1000A4AEA000A21F0004949EADA7AE2453DD803F1404C0CF5801C5CEA020C4CD04FEAA37A0AF0020A4AEAD17A59EA000136D058EA0401F6
:4010C0003AD06149884551D05F49894534D0C8EB09084FEA2858B8F13C0F43DC002D70DBDDE9000100F042FD00F05AFA00F0B0F8BAF1010F62D0BAF1020F52D0BAF1000F75
:4011000010D03FA3D3E9002300F052FA3EA3D3E9002300F04DFA05E010461946DDE9002300F048FA02B0BDE8F087BAF1030FC5D8DFE80AF00D0D1410002F2EDB34A1D1E938
:401140000001EFE702B0BDE8F04700F081B8DDE90001E7E730A1D1E90001E3E72AA1D1E90001DFE72AA1D1E90001C1E7C1452ED0BAF1030FA8D801A151F82AF09511000090
:401180008D1100005D1100005511000000204FF00041C7E700200021C4E721A1D1E90001C0E717A3D3E9002300F002FA02460B4615A1D1E9000100F0FBF9B3E701F100411F
:4011C000B0E718F13C0F8BDA0020002190E7BAF1030FB1D8DFE80AF006020E0A12A1D1E900019FE712A1D1E900019BE712A1D1E9000197E712A1D1E9000193E7AFF30080E6
:40120000075C143326A6A13C182D4454FB210940182D4454FB21F93F182D4454FB2109C0182D4454FB21F9BF182D4454FB21E9BF182D4454FB21E93FD221337F7CD902C0F7
:40124000D221337F7CD902400000F07FAFF300802DE9F04FB64B21F000469E4283B004460D4689460FDDB3498E4200F3B38000F0AE80B9F1000F40F3EF8091A1D1E9000131
:4012800003B0BDE8F08FAC4B9E4200F3BD80A3F1DE739E4240F3A7804FF0FF3C22462B4620462946CDF804C000F036FB02460B4682468B4600F030FB83A3D3E900230646C1
:4012C0000F4600F029FB82A3D3E9002300F072F932463B4600F020FB7FA3D3E9002300F069F932463B4600F017FB7DA3D3E9002300F060F932463B4600F00EFB7AA3D3E9C1
:40130000002300F057F932463B4600F005FB78A3D3E9002300F04EF952465B4600F0FCFA75A3D3E9002382468B463046394600F0F3FA73A3D3E9002300F03AF932463B469E
:4013400000F0EAFA70A3D3E9002300F031F932463B4600F0E1FA6EA3D3E9002300F028F932463B4600F0D8FA6BA3D3E9002300F01FF932463B4600F0CFFADDF804C0024685
:40138000BCF1FF3F0B466BD0504659464FEACC0600F010F922462B4600F0BEFA674F684B37441E44D6E9002300F002F922462B4600F0FEF802460B46D7E9000100F0F8F8F0
:4013C000B9F1000F0CDA01F10045294608E000283FF44FAF2046294622462B4600F0EAF803B0BDE8F08F4EA3D3E9002300F0E2F80022544B00F020FD00283FF44DAF2046EB
:40140000294603B0BDE8F08F00F0CAF84E4B04469E420D4633DCA3F550239E4200F3A58002460B4600F0C6F80022464B00F0C0F8002206460F46204629464FF0804300F060
:40144000B9F802460B463046394600F08FFB4FF0000C04460D4621E733A1D1E90001BFE75046594600F0A6F822462B4600F054FA02460B462046294600F09AF8B0E7334BAF
:401480009E4267DC0022324B00F092F8002206460F46204629462E4B00F03EFA0022294B00F088F802460B463046394600F05EFB4FF0020C04460D46F0E600BFAFF3008039
:4014C000182D4454FB21F93F11DA22E33AAD903FEB0D76244B7BA93F513DD0A0660DB13F6E204CC5CD45B73FFF8300922449C23F0D5555555555D53F2F6C6A2C44B4A2BFF7
:401500009AFDDE522DDEAD3F6D9A74AFF2B0B33F711623FEC671BC3FC4EB98999999C93F9C7500883CE4377E182D4454FB21F9BFFFFF0F440000F07FFFFFDB3FF827000025
:40154000D82700000000F03FFFFFF23FFF7F03400000F83F02460B4600200F4900F006FB4FF0030C04460D4698E600220B4B00F01FF8002206460F4620462946074B00F052
:4015800019F802460B463046394600F0EFFA4FF0010C04460D4681E60000F0BF0000F03F21F00041704700BF81F0004102E000BF83F0004330B54FEA41044FEA430594EA52
:4015C000050F08BF90EA020F1FBF54EA000C55EA020C7FEA645C7FEA655C00F0E2804FEA5454D4EB5555B8BF6D420CDD2C4480EA020281EA030382EA000083EA010180EA7E
:40160000020281EA0303362D88BF30BD11F0004F4FEA01314FF4801C4CEA113102D0404261EB410113F0004F4FEA03334CEA133302D0524263EB430394EA050F00F0A780CA
:40164000A4F10104D5F1200E0DDB02FA0EFC22FA05F2801841F1000103FA0EF2801843FA05F359410EE0A5F120050EF1200E012A03FA0EFC28BF4CF0020C43FA05F3C01866
:4016800051EBE37101F0004507D54FF0000EDCF1000C7EEB00006EEB0101B1F5801F1BD3B1F5001F0CD349085FEA30004FEA3C0C04F101044FEA445212F5800F80F09A8093
:4016C000BCF1004F08BF5FEA500C50F1000041EB045141EA050130BD5FEA4C0C404141EB010111F4801FA4F10104E9D191F0000F04BF01460020B1FA81F308BF2033A3F1D3
:401700000B03B3F120020CDA0C3208DD02F1140CC2F10C0201FA0CF021FA02F10CE002F11402D8BFC2F1200C01FA02F120FA0CFCDCBF41EA0C019040E41AA2BF01EB045135
:40174000294330BD6FEA04041F3C1CDA0C340EDC04F11404C4F1200220FA04F001FA02F340EA030021FA04F345EA030130BDC4F10C04C4F1200220FA02F001FA04F340EA2F
:401780000300294630BD21FA04F0294630BD94F0000F83F4801306BF81F480110134013D4EE77FEA645C18BF7FEA655C29D094EA050F08BF90EA020F05D054EA000C04BF66
:4017C0001946104630BD91EA030F1EBF0021002030BD5FEA545C05D14000494128BF41F0004130BD14F580043CBF01F5801130BD01F0004545F0FE4141F470014FF0000045
:4018000030BD7FEA645C1ABF194610467FEA655C1CBF0B46024650EA013406BF52EA033591EA030F41F4002130BD00BF90F0000F04BF0021704730B54FF4806404F13204CE
:401840004FF000054FF0000150E700BF90F0000F04BF0021704730B54FF4806404F1320410F0004548BF40424FF000013EE700BF42004FEAE2014FEA31014FEA02701FBF49
:4018800012F07F4393F07F4F81F06051704792F0000F14BF93F07F4F704730B54FF4607401F0004521F0004120E700BF50EA010208BF704730B54FF000050AE050EA010279
:4018C00008BF704730B511F0004502D5404261EB41014FF4806404F132045FEA915C3FF4DCAE4FF003025FEADC0C18BF03325FEADC0C18BF033202EBDC02C2F1200300FABA
:4019000003FC20FA02F001FA03FE40EA0E0021FA02F11444C1E600BF70B54FF0FF0C4CF4E06C1CEA11541DBF1CEA135594EA0C0F95EA0C0F00F0DEF82C4481EA030621EA04
:401940004C5123EA4C5350EA013518BF52EA033541F4801143F4801338D0A0FB02CE4FF00005E1FB02E506F00042E0FB03E54FF00006E1FB03569CF0000F18BF4EF0010E25
:40198000A4F1FF04B6F5007F64F5407404D25FEA4E0E6D4146EB060642EAC62141EA55514FEAC52040EA5E504FEACE2EB4F1FD0C88BFBCF5E06F1ED8BEF1004F08BF5FEAEA
:4019C000500E50F1000041EB045170BD06F0004646EA010140EA020081EA0301B4EB5C04C2BFD4EB0C0541EA045170BD41F480114FF0000E013C00F3AB8014F1360FDEBF3F
:401A0000002001F0004170BDC4F10004203C35DA0C341BDC04F11404C4F1200500FA05F320FA04F001FA05F240EA020001F0004221F0004110EBD37021FA04F642EB0601BB
:401A40005EEA430E08BF20EAD37070BDC4F10C04C4F1200500FA04F320FA05F001FA04F240EA020001F0004110EBD37041F100015EEA430E08BF20EAD37070BDC4F1200579
:401A800000FA05F24EEA020E20FA04F301FA05F243EA020321FA04F001F0004121FA04F220EA020000EBD3705EEA430E08BF20EAD37070BD94F0000F0FD101F00046400068
:401AC00041EB010111F4801F08BF013CF7D041EA060195F0000F18BF704703F00046520043EB030313F4801F08BF013DF7D043EA0603704794EA0C0F0CEA135518BF95EA8A
:401B00000C0F0CD050EA410618BF52EA4306D1D181EA030101F000414FF0000070BD50EA410606BF1046194652EA430619D094EA0C0F02D150EA013613D195EA0C0F05D188
:401B400052EA03361CBF104619460AD181EA030101F0004141F0FE4141F470014FF0000070BD41F0FE4141F4780170BD70B54FF0FF0C4CF4E06C1CEA11541DBF1CEA135567
:401B800094EA0C0F95EA0C0F00F0A7F8A4EB050481EA030E52EA03354FEA013100F088804FEA03334FF0805545EA131343EA12634FEA022245EA111545EA10654FEA002649
:401BC0000EF000419D4208BF964244F1FD0404F5407402D25B084FEA3202B61A65EB03055B084FEA32024FF480104FF4002CB6EB020E75EB030E22BFB61A754640EA0C00A3
:401C00005B084FEA3202B6EB020E75EB030E22BFB61A754640EA5C005B084FEA3202B6EB020E75EB030E22BFB61A754640EA9C005B084FEA3202B6EB020E75EB030E22BFC9
:401C4000B61A754640EADC0055EA060E18D04FEA051545EA16754FEA06164FEAC30343EA52734FEAC2025FEA1C1CC0D111F4801F0BD141EA00014FF000004FF0004CB6E723
:401C800011F4801F04BF01430020B4F1FD0C88BFBCF5E06F3FF6AFAEB5EB030C04BFB6EB020C5FEA500C50F1000041EB045170BD0EF0004E4EEA113114EB5C04C2BFD4EBB8
:401CC0000C0541EA045170BD41F480114FF0000E013C90E645EA060E8DE60CEA135594EA0C0F08BF95EA0C0F3FF43BAF94EA0C0F0AD150EA01347FF434AF95EA0C0F7FF4EF
:401D000025AF104619462CE795EA0C0F06D152EA03353FF4FDAE1046194622E750EA410618BF52EA43067FF4C5AE50EA41047FF40DAF52EA43057FF4EBAE12E74FF0FF3C12
:401D400006E000BF4FF0010C02E000BF4FF0010C4DF804CD4FEA410C7FEA6C5C4FEA430C18BF7FEA6C5C1BD001B050EA410C0CBF52EA430C91EA030F02BF90EA020F0020B6
:401D8000704710F1000F91EA030F58BF994208BF90422CBFD8176FEAE37040F0010070474FEA410C7FEA6C5C02D150EA013C07D14FEA430C7FEA6C5CD6D152EA033CD3D07F
:401DC0005DF8040B704700BF8446104662468C461946634600E000BF01B5FFF7B7FF002848BF10F1000F01BD4DF808EDFFF7F4FF0CBF012000205DF808FB00BF4DF808EDE9
:401E0000FFF7EAFF34BF012000205DF808FB00BF4DF808EDFFF7E0FF94BF012000205DF808FB00BF4DF808EDFFF7CEFF94BF012000205DF808FB00BF4DF808EDFFF7C4FF23
:401E400034BF012000205DF808FB00BF4FEA410212F5001215D211D56FF47873B3EB625212D94FEAC12343F0004343EA505311F0004F23FA02F018BF404270474FF0000019
:401E8000704750EA013005D111F0004008BF6FF0004070474FF00000704700BF014B1868704700BF8081FF1F70B50E4B0E4D0024ED1AAD101E46AC4204D056F82420904766
:401EC0000134F8E700F0C4FC084D094B0024ED1AAD101E46AC4204D056F8242090470134F8E770BD5C2800005C280000642800005C28000010B50023934203D0CC5CC454D5
:401F00000133F9E710BD02440346934202D003F8011BFAE7704700000EB400B54FF402719CB0ADF814106FF00041049107914FF6FF711DABADF81610084953F8042B029027
:401F40000690086802A9019300F066F8029B00221A701CB05DF804EB03B070478081FF1F2DE9F0478D688146AB420C4692461F4643D38B8913F4906F3DD026680969022206
:401F8000C1EB0608666906EB460696FBF2F608F101023A44964238BF16465B050FD5314600F01AFB054698B121694246FFF7A2FFA38923F4906343F08003A38113E03246C5
:401FC00000F05EFB054670B94846216900F0C0FA0C23C9F80030A3894FF0FF3043F04003A381BDE8F087256166614544C8EB06062560A6603D46AF4200D23D462A46206811
:40200000514600F089FAA36800205B1BA36023681D442560BDE8F0872DE9F0439DB003938B8907461C060D4616460CD50B6953B9402100F0D1FA2860286110B90C233B60E6
:40204000C7E040236B610023099320238DF8293030238DF82A3033461C4613F8012B1AB9B4EB06090FD002E0252AF5D1F8E73846294632464B46FFF773FF013000F0A4808D
:40208000099B4B4409932378002B00F09D8000234FF0FF3204930793059206938DF853301A9304F101094D4E4C4630462178052200F024FA09F10109049B28B1861B012027
:4020C000B04003430493EEE7D90644BF20228DF853201A0744BF2B228DF8532022782A2A02D0079B21460EE0039A111D12680391002A01DB079204E0524243F00203079241
:40210000049301340AE00C4622780131303A092A03D80A2000FB0323F5E7079323782E2B19D163782A2B09D1039B02341A1D1B680392002BB8BF4FF0FF330BE0611C0023E9
:402140000C4622780131303A092A03D80A2000FB0323F5E70593224E21783046032200F0CDF930B1861B4020B040049B01340343049321781B480622661C8DF8281000F0DA
:40218000BDF988B1184B33B9039B073323F007030833039314E003AB0093384604A92A46124BAFF3008007E003AB0093384604A92A460E4B00F08EF8B0F1FF3F804603D0C2
:4021C000099B4344099346E7AB895B0601D4099801E04FF0FF301DB0BDE8F0831A280000202800002428000000000000611F00002DE9F84315461F468A680B6906469A42B7
:40220000A8BF13462B6091F843200C46DDF820800AB101332B602368990602D52B6802332B60236813F006091DD094F843302268003318BF012392061FD5E118302081F843
:4022400043005A1C94F845102244023382F8431013E03046394604F119020123C047013007D009F10109E2682B68D31A9945F0DBDBE74FF0FF30BDE8F8833046394604F180
:402280004302C0470130F4D023682A6803F00603E168042B08BFC2EB01052369A2680CBF25EAE57500259A42C4BFC3EB0203ED184FF00009A9450ADA3046394604F11A02AC
:4022C0000123C0470130D4D009F10109F2E70020BDE8F8832DE9FF470E7E80466E2E0C4691469A460C9D01F1430000F0A58011D8632E22D009D8002E00F0AF80582E40F02B
:40230000BF8081F845607B4A4FE0642E1ED0692E1CD0B5E0732E00F0A48009D86F2E2BD0702E40F0AD800B6843F020030B6038E0752E21D0782E34D0A2E02B6801F14207B1
:402340001A1D1B682A6081F842309DE022682B6812F0800F03D01A1D2A601D6805E05106F9D51A1D2A60B3F90050002D39DA2D236D4284F8433034E022682B6812F0800F33
:4023800003D01A1D2A601D6804E05206F9D51A1D2A601D88237E574A6F2B14BF0A2308231BE07823544A84F845302368296813F0800F01F104062E6001D00D6802E05F06A3
:4023C000FBD50D88DE0744BF43F0200323601DB9236823F0200323601023002184F8431001E0444A0A236668002EA66003DB216821F00401216005B96EB104F14201B5FB19
:40240000F3F603FB1655555D0F4601F801593546002EF4D100E00746082B0AD12368DD0707D5626823699A4203DC302307F8013C013FC01B20612CE009682B6811F0800F20
:40244000626904D0191D29601B681A6005E04906F8D5191D29601B681A8000232361074617E02B681A1D2A601F68384600F03EF963682061984288BF23612369636005E094
:4024800004F1420784F8426001232361002384F84330CDF800A04046214603AA4B46FFF7A7FE013002D14FF0FF301FE0404649463A462369D0470130F5D023689B0705D436
:4024C000E068039B9842B8BF18460FE00025E268039BD31A9D42F3DA4046494604F119020123D0470130DED00135F0E704B0BDE8F08700BF2B2800003C28000010B5C9B2E0
:4025000002449042034605D01C7801308C42F8D1184610BD002010BD814270B501D300230EE08C18A042FAD28518134613F1FF3305D351426618F65C2944CE54F6E770BDD2
:40254000934203D0CC5CC4540133F9E770BD000030B500293CD051F8042C0B1F1D49002AB8BF9B180A680C4612B95A600B6030BD93420DD219685818904203D15A581144C8
:40258000426819605A60236030BD994203D80A4651680029F9D1146815199D420AD11B682344D0188842136012D10868034413604B680CE002D90C23036030BD18681C18EF
:4025C0008C4203D10C684968204418605960536030BD00BFB081FF1F70B5CD1C25F0030508350C2D38BF0C25002D06463FDB8D423DD3214B1C6818462146A1B10B685B1BA6
:402600000ED40B2B03D90B60CC18CD501FE08C4202D1626802601AE04B6863600C4616E00C464968E9E7154C23681BB9304600F04DF820602946304600F048F8431C01463D
:4026400015D0C41C24F0030484420AD1256004F10B00231D20F00700C31A0BD05A42E25070BD3046611A00F031F80130EED10C233360002070BD00BFB081FF1FAC81FF1FE8
:40268000F8B5064614460D4621B91146BDE8F840FFF7A2BF1AB9FFF75BFF2046F8BD00F02DF8A0420ED230462146FFF795FF074650B129462246FFF71DFC30462946FFF784
:4026C00047FF01E02846F8BD3846F8BD38B5064C0023054608462360FDF7C8FD431C02D1236803B12B6038BDC881FF1F034613F8012B002AFBD1181A0138704751F8040CDD
:40270000002802DA04390B581844043870470000000000000000000048656C6C6F20576F726C642E205468697320697320616E205541525420544553542063616E20796FA3
:402740007520736565206D652E000000506C656173652073656E64206D65206461746120616E6420492077696C6C204563686F206974206261636B00546573742049324338
:40278000200A0D0042656172696E673A202564200A0D0000C8490040190010510040100030510040300000000140800A000B0140000500140140000800400140000A004CB4
:4027C000014000020050014020000000800A01403007004880000000E2652F227F2B7A3C075C143326A6813CBDCBF07A8807703C075C143326A6913C4FBB610567ACDD3FE1
:40280000182D4454FB21E93F9BF681D20B73EF3F182D4454FB21F93F4300232D302B2000686C4C00656667454647003031323334353637383941424344454600303132331C
:4028400034353637383961626364656600000000F8B500BFF8BC08BC9E4670474D000000E9020000F8B500BFF8BC08BC9E46704729000000882800000881FF1F8000000086
:40288000480000000000000000000000D081FF1F0000E02EC05D00001800000000366E01000000000000000000000000000000000000000000000000000000000000000079
:4028C0001828000000000000000000000000000000000000000000000000000000000000000000000000000000000000000000000000000000000000000000000000000098
:402900002081FF1F000000000000000000000000000000000000000000000000000000000000000000000000000000000000000000000000000000000000000000000000D8
:402940000000000000000000000000000000000000000000000000000000000000000000000000000000000000000000000000000000000000000000000000000000000057
:402980000000000000000000000000000000000000000000000000000000000000000000000000000000000000000000000000000000000000000000000000000000000017
:4029C00000000000000000000000000000000000000000000000000000000000000000000000000000000000000000000000000000000000000000000000000000000000D7
:402A00000000000000000000000000000000000000000000000000000000000000000000000000000000000000000000000000000000000000000000000000000000000096
:020000040003F7
:0200000480007A
:4000000008520040066400400165004049020140230301404904014025050140010701404F0801402F090140180A0140410B0140360C0140300D01403F0E0140240F01409D
:400040000115014002170140371801402F190140041B01400641014008420140014301400F44014014450140094601400547014005480140024901400D4C0140014D014030
:400080000750014001510140000401041401309231A0340360246104830F850F890D8B728C388F0D880F07010A010B011601330134014060410249FF4AFF4BFF4DA04F04F7
:4000C0005018580459045A045C115D015F01604062C06440654066C068C06AC06CC06EC087018B088D0891029706A701AE01B104B301B401B508B702BF04C020C106C5D1AE
:40010000C650C702C81BC9FFCAFFCBFFCDAFCE0FCF04D018D280D407D804D904DA04DB04DC11DD11DF01E040E2C0E440E540E6C0E8C0EAC0ECC0EEC004200F201340180411
:400140001B101F20225527202B103104320138603A043F2440044604480849054B044F205018520459015AA873408320C040C220C401CA02CC03CE6ED024D224D60F0B01C8
:4001800031014030410249FF4AFF4BFF4DA04F04501859045A045C105D015F01604062C06440654066C068C06AC06CC06EC0830C87038A0E910299089E08A602AA04AE0185
:4001C000B004B102B201B308B402B504B608B701BE10C030C102C5D0C620C751C83AC9FFCAFFCBFFCDAFCE0FCF04D018D280D407D804D904DA04DB04DC11DD11DF01E04042
:40020000E2C0E440E540E6C0E8C0EAC0ECC0EEC004100F02162817401C101D091E081F402040261027A13610370138203E083F024010412045284F015520562857015E0816
:400240005FA17740810190209440AF20C040C280C4E0CCA0CEC4D066D6F09380030606020B1810181203141815021605170C19181B061D011E092606271028162A012D027B
:400280002F1C3007331E3418350138203A023B083E103F104002464049FF4A074BFF4C404D204EF04F055008580459045A045C225D025F01604061A8624063208A018B03AC
:4002C0009101AA01B102B201B701BE04C030C106C9FFCAFFCBFFCDA0CF04D018D405D804D904DA04DB04DF01E040E2C0E440E540E6C0E8C0EAC0ECC0EEC0001006100C05E4
:400300000D080E400F0110081620171019041D201E4021022240240427102E402F20310234043540371038203D203E203F014010452048084F015610572059065A809030D7
:400340009902A008B084C022C2B0C462CA50CC71CEA4D022D204D60B4030410645D046104702481A49FF4AFF4BFF4DAF4E0F4F0450185A045F01604062C06440654066C06F
:4003800068C06AC06CC06EC004020590060407200C200D020E12148017141C441D0A1F48260827492F40360837113E103F824010450A46044740480849024A014B404F40AB
:4003C00050185120551057405C046C016E106F10742475A08A489010944099109B249DA09E409F09A201A301A404A532A708B301B401B516B601B740C0F0C2F0C470CA8009
:40040000CCE0CEB0D0F2D214D640002201040340040C0518063308040B800C080F23123313041433151C160C1722183F191C1B211C111D271F182033213F240C2508280F41
:400440002A302B802D103140320F3338351F363037803A283B283F405418580459045B045C225D205F018A029A02AE01B201B602D804DB04DF010010040805A00648092074
:400480000D020E280F0210021504172118111D141E29240A260227242D822E082F083602376438023B023C483D243F0258085B085E0164086702680A6A048A048C08A820F4
:4004C000B320B610C0F2C2F2C471CAF0CCF0CEF0D680D830E8010B010F021F01330137024010410649FF4AFF4BFF4DA04F04501859045A045B045F01604062C06440654004
:4005000066C068C06AC06CC06EC082018B019601A101A602B101B401B602BE10C010C106C5D0C610C702C81AC9FFCAFFCBFFCDAFCE0FCF04D018D405D804D904DA04DB04A1
:40054000DF01E040E2C0E440E540E6C0E8C0EAC0ECC0EEC004010C0816201E081F8020012180232027802F80318039403A203E204001458048084C084D01540856205D01C5
:400580005E085F80682069406A20C010C220C420CA80CC08CE2CD018D224D6D0EA01B340EE80002C010202110314040905280610071108140B200E03110D122013101430ED
:4005C000160C190D1B301E2020402410281C2A222D0C2F103220333C34403503361F39203B083E144034410145E047CB483249FF4AFF4BFF4EF04F44500C54015804590461
:400600005A045B045C225D225F0166C06A406B0204080540060407400C400D0A0F011501161817101C201D401E082408251827202F02340137203D203E083F014441450802
:4006400047404D015502560457025D815E085F10930198019A109B109D40A518B404C0F0C2B0C470CA10CCA0CEE0D0D0D6F0AF12B010B180EA0153805F808380D420D62028
:40068000E2803E1057408340AF80CE20D440E220EE10961000010502510454205F046290660471087408C00CD406D603D803DC01DE04000250108A108D089001950898085C
:4006C0009E10A428A508AA04B008B102B304B680C008D404E40CE802EC049001942095089808A420B001B408EA01EC089001942095089808A42050809610A080B080D420D1
:40070000AA10EA8010201320150878087C01900195089808A420B410C40EDE03EC02AB20000708020A020C050E0510041C0403C00121001A2C0012003E730000080000806B
:4007400000100264014200190473000032000C000C0000802E0010000100000000000000010C0E03208010708000000000001011540203000100CE000CFFFFFF62A0F041E4
:400780000C00000000000212040404042222000100000000000040020010301000101012000000000000000000000000000000000006060006000000003434003400000052
:4007C0000001010001000000020001020200020000000000030000F0F300F30000000000000000000000000000000000000000000000000000000000000000000000000014
:4008000000000000000000000000000000000000000000000000000000000000000000000000000000000000000000000000000000000000000000000000000000000000B8
:400840000000000000000000000000000000000000000000000000000000000000000000000000000000000000000000000000000000000000000000000000000000000078
:400880000000000000000000000000000000000000000000000000000000000000000000000000000000000000000000000000000000000000000000000000000000000038
:4008C00000000000000000000000000000000000000000000000000000000000000000000000000000000000000000000000000000000000000000000000000000000000F8
:0200000490006A
:0400000000004005B7
:0200000490105A
:04000000BC90ACAF55
:0200000490303A
:02000000FE17E9
:0200000490402A
:4000000000000000000000000000000000000000000000000000000000000000000000000000000000000000000000000000000000000000000000000000000000000000C0
:400040000000000000000000000000000000000000000000000000000000000000000000000000000000000000000000000000000000000000000000000000000000000080
:400080000000000000000000000000000000000000000000000000000000000000000000000000000000000000000000000000000000000000000000000000000000000040
:4000C0000000000000000000000000000000000000000000000000000000000000000000000000000000000000000000000000000000000000000000000000000000000000
:0200000490501A
:0C00000000012E16006900012E27FE8072
:00000001FF