:400000000080002011000000B9030000B903000008B5044B1A6803F53F5302331A6000F0E5F900BFFA46004010B5054C237833B9044B13B10448AFF300800123237010BD21
:400040008881FF1F00000000442A000008B5064B1BB106480649AFF300800648036813B1054B03B1984708BD00000000442A00008C81FF1F0881FF1F0000000008B500F040
:4000800015FC00F0AFFB00F011FD00F0BBFC00F061FD01F005F800F0E7F808BD2DE9F04794B0B423ADF800304FF0000A8DF810A0002400250026254FA046A9460BE000F0D2
:4000C0002FF902460B462046294601F027FB04460D460AF1010ABAF1090FF0DD2046294632463B4601F0F6FD04460D4601F062FF024607A8164902F0A9F8C1B207A800F088
:40010000E9FFBDF8000001F055FC22462B4601F029FF38B12046294600220E4B01F0B0FC04460D46204629466A4600F01DF82046294601F03FFF024607A8054902F086F838
:400140004FF0000A44464D46C5E700BF00002440482A00000000E03F08B562B6FFF78EFFFFF79CFF00000000F8B504460D461646178801F047FF80B2874202D3C6E902458E
:4001800004E0384601F006FCC6E90201337C032B56D8DFE803F002172C41D6E902012AA3D3E9002301F06CFC00222B4B01F092FD00222A4B01F0B2FA01F024FF80B200F0A4
:4001C00043FCF8BDD6E902010022254B01F058FC0022244B01F07EFD1DA3D3E9002301F09DFA01F00FFF80B200F034FCF8BDD6E9020100221A4B01F043FC0022194B01F058
:4002000069FD13A3D3E9002301F088FA01F0FAFE80B200F0C5FBF8BDD6E902010022104B01F02EFC00220F4B01F054FD08A3D3E9002301F073FA01F0E5FE80B200F0B6FB29
:40024000F8BD00BFAFF300800000000000907040000000000070A7400000224000209C40000049400000084008B51E20002100F0E9FD002000F078FE702000F075FE00F0C7
:4002800057FE1E20002100F0DDFD022000F06CFE002000F069FE00F04BFE432000F02AFB08BD00BF2DE9F04F83B081460E4601921E20002100F0C6FD032000F055FE0620C4
:4002C00000F018FB1E20012100F0FCFD012000F077FE8346012000F073FE8246012000F06FFE0546012000F06BFE0446012000F067FE8046002000F063FE074600F018FE8C
:400300004AEA0B2AA9F800A047EA0827378044EA0524019B1C8003B0BDE8F08F0000000030B583B00DF1060001A90DF10202FFF7B9FFBDF9060001F03DFB00221C4B01F0C1
:400340009FFB04460D46BDF9040001F033FB0022174B01F095FB22462B4600F033FF01F071FE0446002101F00BFF50B1204601F033FB0BA3D3E9002301F0D0F901F062FE89
:400380000446204601F028FB07A3D3E9002301F077FB01F057FE01F01FFB03B030BD00BF182D4454FB211940F8C1631ADCA54C4000002440AFF30080FEE700BF08B5094B0D
:4003C0001B681844084A821A802A02DC054A106005E001F0FDFE0C2303604FF0FF33184608BD00BF0C81FF1FE081FF1F80B5104F104E002415E031687368B568224604E021
:4004000051F8040B43F8040B0432AA42F8D1F168224602E043F8044B04328A42FAD11036013F002FE7D101F0D9FEFFF795FEFEE701000000BC2B000010B5124A124B1A60B2
:4004400008331A6842F400721A6000230F48104C104908E0032B02D854F8232000E0024641F8232001332F2BF4D90B4B1A780B4B1A70084A0A4B1A6000F0C2F80022094BE7
:400480001A6010BD0004FA050CED00E0B9030000000000000080FF1FBC7600400481FF1F08ED00E00081FF1FFEE700BFF0B400231F4611E050F82760F2B226F0FF0608E0FF
:4004C00001EB430511F813406D78A5550133013AD2B2002AF4D10137232FEBD9F0BC7047064B1B78DBB203F00701054A11701B09013213704422034B1A707047CF010049D6
:400500006E5800407658004008B50A46002101F094FE08BDF8B501222C4B1A8018232C4A13700025023215801924023214704FF49C7228490A8002310B7002310A80264A12
:4005400013700222254B1A7008234FF040221370032102F500721170214A1178C9B2214A1170A2F27F42138041F251221E4B1A801E4F4FF4F0760AE03B7803F0010343EABA
:40058000450505F00305304600F09EF9013C0CB1032DF1D114B90320FFF786FF144B4FF480721A8007221A70002212490A704820023108701A700222033B1A7003F2A13376
:4005C0001A7842F00F021A70F8BD00BF8040004082400040884000408E4000400043004008010049A14600402042004025420040044000400640004008B501F015FE08BD3B
:4006000038B572B6364B1A7842F004021A700024344D09E004EB44035B002B4418689988FFF772FF0134E4B20A2CF3D900242E4D0AE004EB84035B002B44186859681A89C0
:40064000FFF7DAFF0134E4B2012CF2D94FF090402649FFF72BFF264B1A7842F002021A7010331A7842F002021A70224C237843F040032370204B1A7842F010021A701F48AE
:400680001F490822FFF7B8FF1E481F490822FFF7B3FF1E481E490A22FFF7AEFF1D481E490822FFF7A9FF1D481D490A22FFF7A4FF1C4B1A7842F008021A701B4D61232B7055
:4006C000FFF728FF81232B700122184B1A70FFF707FF174821460E22FFF78EFF38BD00BFE8460040C42A0000082B00009000004803500140A0430040C2430040025100406F
:40070000780A0048C2510040800A004820510040880A004842510040940A0048605100409C0A0048224300400048004004000840B0430040014B1880704700BF1C680040DD
:40074000014B1880704700BF9C680040014B1880704700BF5C680040014B1870704700BF8F640040014B1878704700BF6F640040014B188880B27047BC68004008B501E0C4
:40078000FFF7F6FFFFF7EEFF10F0100FF8D108BD10B5124B1A7842F001021A70104C237843F0010323704EF66020FFF7C3FF4EF66020FFF7C5FF47F23050FFF7C7FF0020FB
:4007C000FFF7CAFF00F08AF8237843F01003237000F088F8FFF7D2FF10BD00BF9E6400409F64004008B5044B1B7823B9FFF7D0FF0122014B1A7008BDA481FF1F014B1880E7
:40080000704700BF18680040014B1880704700BF98680040014B1880704700BF58680040014B1870704700BF8E640040014B1878704700BF6E640040014B188880B27047D9
:40084000B868004008B501E0FFF7F6FFFFF7EEFF10F0100FF8D108BD08B5124B1A7842F001021A7001331A7842F001021A704EF66020FFF7C3FF4EF66020FFF7C5FF47F2DC
:400880003050FFF7C7FF0020FFF7CAFF00F026F8054B1A7842F010021A7000F023F8FFF7D1FF08BD9C6400409E64004008B5044B1B7823B9FFF7D0FF0122014B1A7008BD49
:4008C000A581FF1F000000000230800800F0058000BF013800467FF4FCAF7047EFF3108072B6704780F31088704700BFAFF3008001BE704738B50446084D04E02868FFF712
:40090000E3FFA4F50044B4F5004FF7D8034B586800FB04F0FFF7D8FF38BD00BF1081FF1F70B505460E46074B1C681F2802D90020FFF7DEFF05F01F05103554F8250044F84A
:40094000256070BD08ED00E038B505460C46072902D90020FFF7CCFF1F2D02D90020FFF7C7FF05F01F0000F1604000F564406401E4B2047038BD00BF024B1A7842F0800283
:400980001A70704775640040014B1880704700BF08680040014B1880704700BF88680040014B1880704700BF48680040014B1880704700BF6868004008B5114B1A7802F0F8
:4009C000C00242F009021A701F331A7842F001021A7001331A7842F001021A704EF66020FFF7D2FF4EF66020FFF7D4FF47F23050FFF7D6FF47F23050FFF7D8FF08BD00BFA0
:400A00007564004008B5054B1B7823B9FFF7D4FF0122024B1A70FFF7AFFF08BDA681FF1F024B1A7842F080021A70704772640040014B1880704700BF04680040014B1880DC
:400A4000704700BF84680040014B1880704700BF44680040014B1880704700BF6468004008B5114B1A7802F0C00242F00A021A7020331A7842F001021A7001331A7842F065
:400A800001021A704EF66020FFF7D2FF4EF66020FFF7D4FF41F27070FFF7D6FF41F27070FFF7D8FF08BD00BF7264004008B5054B1B7823B9FFF7D4FF0122024B1A70FFF704
:400AC000AFFF08BDA781FF1F38B50622114B1A7081220E3B1A70082202331A700F2511331D70002401331C704FF400420A4B1A6028460721FFF728FF28460849FFF710FF2F
:400B00001022074B1A70074B1C70074B1C70074B1C7038BDD649004080E100E07D0B0000B881FF1FBE81FF1FC681FF1FBC81FF1F08B5FFF7D3FE064B1A7842F004021A7053
:400B400010331A7842F004021A70FFF7CBFE08BDA543004008B5074B1B7823B9FFF7B4FF0122044B1A70FFF7E3FF4FF40042024B1A6008BDA881FF1F00E100E038B5A44B42
:400B80001C78E4B2A34B1B7813F0400F00F0378114F0010F00F01B819E4B1B78453B052B00F21281DFE813F006008200100110010600DE0004F0DF0504F00A04082C42D1C6
:400BC000944B1B78DBB2452B35D1934B1B7813F0FF0F10D0914B1B681A78D2B2904B1A700422013B1A7001228E4B1A704622894B1A702C46EBE08C4B1B7813F0020F0DD074
:400C00008A4B1A7842F00A021A706022814B1A704FF40042864B1A602C46D8E0854B1A7842F010021A70102203331A700422023B1A702C46CBE00022754B1A704A22754BEF
:400C40001A702C46C3E00A2C2BD1784B1A7842F0A0021A70744B1B7813F0020F14D06D4B1B7813F0080F01D0092100E00A216F4B1A780A431A706022664B1A704FF40042D6
:400C80006B4B1A602C46A2E06A4B1A7842F010021A70102203331A700422023B1A702C4695E00020FFF724FE2C4690E014F0020F35D15C4B1A78584B1B78D2B29A4210D24F
:400CC000584B1A78D2B255490968895CC9B2544A11700421013A11701A780132D2B21A7075E0514B1B7813F0020F0CD04F4B1A7842F00A021A706022464B1A704FF400426F
:400D00004B4B1A6063E04B4B1A7842F010021A70102203331A700422023B1A7057E0424B1B7813F0020F0CD0404B1A7842F09A021A706022374B1A704FF400423C4B1A60BB
:400D400045E03C4B1A7842F010021A70102203331A700422023B1A70344B1A7842F090021A7034E0344B1A78D2B2344909682C480078C0B288541A780132D2B21A701A78F3
:400D80002F4B1B78D2B29A4203D21022204B1A701DE0254B1B7813F0020F0CD0234B1A7842F009021A7060221A4B1A704FF400421F4B1A600BE01F4B1A7842F010021A7084
:400DC000002201331A7002E00020FFF791FD14F0200F1CD00F4B1B7813F0080F01D0012200E00222114B19780A431A70114B1A7802F0EF021A701022064B1A7038BD054BFE
:400E00001B7813F0100F02D11022024B1A7038BDD7490040B881FF1FBD81FF1FC881FF1FD8490040BC81FF1FC481FF1FBE81FF1F80E100E0D6490040C681FF1FC081FF1FD2
:400E4000C581FF1F1A4B1B78DBB2102B29D1194B1B7813F0080F26D14FF40042164B1A604000C0B229B140F001004922104B1A7002E045220E4B1A70104B18700122013379
:400E80001A700F4A137813F0010FFBD00C4B1B7803F00A030A2B08D11022054B1A700320704702207047012070470020704700BFB881FF1FD949004080E100E0D849004066
:400EC000D7490040164B1B7813F0040F23D04000C0B229B140F001004922124B1A7002E04522104B1A70104B1870122201331A700422023B1A701A46137813F0010FFBD0CD
:400F00000A4B1B7803F00A030A2B06D11022054B1A7003207047022070470020704700BFD9490040B881FF1FD8490040D74900400A4B1B7813F0040F0ED01023074A13700B
:400F40000421023A1170064A1370064A137813F0210FFBD00020704702207047D9490040B881FF1FD7490040114B1B7813F0040F1BD0104B18700422013B1A7046220E4B9A
:400F80001A700E4A137813F0010FFBD00B4B1B7813F0020F04D16022074B1A70002070476022054B1A70032070470220704700BFD9490040D8490040B881FF1FD749004097
:400FC0000146114B1B7813F0040F1BD00F4B1B78DBB2492B05D100220D4B1A704A220B4B1A700B4A137813F0010FFBD0094B1878C0B219B11022013B1A7070476022034B49
:401000001A70704700207047D9490040B881FF1FD7490040D849004008B501200C49FFF77FFC01200721FFF78FFC0023094A13707221094A11702021043A117006215E3A91
:4010400011704721103211704D32137008BD00BFFD100000A981FF1F8D64004010B5FFF73DFC04460B4B1A7842F020021A70043B1A7842F010021A700222074B1A60074BD3
:401080001A7842F010021A7000F08EF82046FFF729FC10BD9D64004000E100E09864004008B5054B5B7823B9FFF7B6FF0122024B5A70FFF7D3FF08BDA981FF1F034A137880
:4010C00013F0040FFBD1024B18707047686400404864004070B506460D46074B5B7833B970BD305DFFF7EAFF0134E4B200E00024AC42F6D370BD00BFA981FF1F2DE9F00755
:40110000214C2248DFF898C0214A224F224D234E4FF00108DFF88C902378DBB213F01E0F06D003F01E0190F800A041EA0A01017003F0200303F0FF0103B39CF800A05FFA57
:401140008AFA1378DBB207F803A02B7813F0FF0F01D089F8008013780133DBB213701378DBB2082B01D90023137092F800A033785FFA8AFA9A4501D185F800800029CBD1EC
:40118000BDE8F007704700BF69640040A981FF1FAC81FF1FCC81FF1FAD81FF1FAB81FF1F49640040AE81FF1F054B1A7842F008021A7010331A7842F008021A70704700BF89
:4011C000A243004000F000B82DE9F047C2F1000949EA020923F00048DFF8D4C148EAD97982B0E14514461D46CDE900010F4647D8C0F1000A4AEA000A21F0004949EADA7A76
:40120000E2453DD803F1404C0CF5801C5CEA020C4CD04FEAA37A0AF0020A4AEAD17A59EA000136D058EA04013AD06149884551D05F49894534D0C8EB09084FEA2858B8F137
:401240003C0F43DC002D70DBDDE9000100F042FD00F05AFA00F0B0F8BAF1010F62D0BAF1020F52D0BAF1000F10D03FA3D3E9002300F052FA3EA3D3E9002300F04DFA05E07C
:4012800010461946DDE9002300F048FA02B0BDE8F087BAF1030FC5D8DFE80AF00D0D1410002F2EDB34A1D1E90001EFE702B0BDE8F04700F081B8DDE90001E7E730A1D1E9C2
:4012C0000001E3E72AA1D1E90001DFE72AA1D1E90001C1E7C1452ED0BAF1030FA8D801A151F82AF0FD120000F5120000C5120000BD12000000204FF00041C7E70020002118
:40130000C4E721A1D1E90001C0E717A3D3E9002300F002FA02460B4615A1D1E9000100F0FBF9B3E701F10041B0E718F13C0F8BDA0020002190E7BAF1030FB1D8DFE80AF08F
:4013400006020E0A12A1D1E900019FE712A1D1E900019BE712A1D1E9000197E712A1D1E9000193E7AFF30080075C143326A6A13C182D4454FB210940182D4454FB21F93FAD
:40138000182D4454FB2109C0182D4454FB21F9BF182D4454FB21E9BF182D4454FB21E93FD221337F7CD902C0D221337F7CD902400000F07FAFF300802DE9F04FB64B21F008
:4013C00000469E4283B004460D4689460FDDB3498E4200F3B38000F0AE80B9F1000F40F3EF8091A1D1E9000103B0BDE8F08FAC4B9E4200F3BD80A3F1DE739E4240F3A780E7
:401400004FF0FF3C22462B4620462946CDF804C000F036FB02460B4682468B4600F030FB83A3D3E9002306460F4600F029FB82A3D3E9002300F072F932463B4600F020FB70
:401440007FA3D3E9002300F069F932463B4600F017FB7DA3D3E9002300F060F932463B4600F00EFB7AA3D3E9002300F057F932463B4600F005FB78A3D3E9002300F04EF98E
:4014800052465B4600F0FCFA75A3D3E9002382468B463046394600F0F3FA73A3D3E9002300F03AF932463B4600F0EAFA70A3D3E9002300F031F932463B4600F0E1FA6EA3E5
:4014C000D3E9002300F028F932463B4600F0D8FA6BA3D3E9002300F01FF932463B4600F0CFFADDF804C00246BCF1FF3F0B466BD0504659464FEACC0600F010F922462B4630
:4015000000F0BEFA674F684B37441E44D6E9002300F002F922462B4600F0FEF802460B46D7E9000100F0F8F8B9F1000F0CDA01F10045294608E000283FF44FAF204629469C
:4015400022462B4600F0EAF803B0BDE8F08F4EA3D3E9002300F0E2F80022544B00F020FD00283FF44DAF2046294603B0BDE8F08F00F0CAF84E4B04469E420D4633DCA3F50F
:4015800050239E4200F3A58002460B4600F0C6F80022464B00F0C0F8002206460F46204629464FF0804300F0B9F802460B463046394600F08FFB4FF0000C04460D4621E7EB
:4015C00033A1D1E90001BFE75046594600F0A6F822462B4600F054FA02460B462046294600F09AF8B0E7334B9E4267DC0022324B00F092F8002206460F46204629462E4B8A
:4016000000F03EFA0022294B00F088F802460B463046394600F05EFB4FF0020C04460D46F0E600BFAFF30080182D4454FB21F93F11DA22E33AAD903FEB0D76244B7BA93FED
:40164000513DD0A0660DB13F6E204CC5CD45B73FFF8300922449C23F0D5555555555D53F2F6C6A2C44B4A2BF9AFDDE522DDEAD3F6D9A74AFF2B0B33F711623FEC671BC3F36
:40168000C4EB98999999C93F9C7500883CE4377E182D4454FB21F9BFFFFF0F440000F07FFFFFDB3F402B0000202B00000000F03FFFFFF23FFF7F03400000F83F02460B4674
:4016C00000200F4900F006FB4FF0030C04460D4698E600220B4B00F01FF8002206460F4620462946074B00F019F802460B463046394600F0EFFA4FF0010C04460D4681E6F7
:401700000000F0BF0000F03F21F00041704700BF81F0004102E000BF83F0004330B54FEA41044FEA430594EA050F08BF90EA020F1FBF54EA000C55EA020C7FEA645C7FEA2B
:40174000655C00F0E2804FEA5454D4EB5555B8BF6D420CDD2C4480EA020281EA030382EA000083EA010180EA020281EA0303362D88BF30BD11F0004F4FEA01314FF4801CC3
:401780004CEA113102D0404261EB410113F0004F4FEA03334CEA133302D0524263EB430394EA050F00F0A780A4F10104D5F1200E0DDB02FA0EFC22FA05F2801841F1000195
:4017C00003FA0EF2801843FA05F359410EE0A5F120050EF1200E012A03FA0EFC28BF4CF0020C43FA05F3C01851EBE37101F0004507D54FF0000EDCF1000C7EEB00006EEBB5
:401800000101B1F5801F1BD3B1F5001F0CD349085FEA30004FEA3C0C04F101044FEA445212F5800F80F09A80BCF1004F08BF5FEA500C50F1000041EB045141EA050130BD53
:401840005FEA4C0C404141EB010111F4801FA4F10104E9D191F0000F04BF01460020B1FA81F308BF2033A3F10B03B3F120020CDA0C3208DD02F1140CC2F10C0201FA0CF0F1
:4018800021FA02F10CE002F11402D8BFC2F1200C01FA02F120FA0CFCDCBF41EA0C019040E41AA2BF01EB0451294330BD6FEA04041F3C1CDA0C340EDC04F11404C4F1200243
:4018C00020FA04F001FA02F340EA030021FA04F345EA030130BDC4F10C04C4F1200220FA02F001FA04F340EA0300294630BD21FA04F0294630BD94F0000F83F4801306BF9B
:4019000081F480110134013D4EE77FEA645C18BF7FEA655C29D094EA050F08BF90EA020F05D054EA000C04BF1946104630BD91EA030F1EBF0021002030BD5FEA545C05D107
:401940004000494128BF41F0004130BD14F580043CBF01F5801130BD01F0004545F0FE4141F470014FF0000030BD7FEA645C1ABF194610467FEA655C1CBF0B46024650EA50
:40198000013406BF52EA033591EA030F41F4002130BD00BF90F0000F04BF0021704730B54FF4806404F132044FF000054FF0000150E700BF90F0000F04BF0021704730B540
:4019C0004FF4806404F1320410F0004548BF40424FF000013EE700BF42004FEAE2014FEA31014FEA02701FBF12F07F4393F07F4F81F06051704792F0000F14BF93F07F4FAE
:401A0000704730B54FF4607401F0004521F0004120E700BF50EA010208BF704730B54FF000050AE050EA010208BF704730B511F0004502D5404261EB41014FF4806404F1EE
:401A400032045FEA915C3FF4DCAE4FF003025FEADC0C18BF03325FEADC0C18BF033202EBDC02C2F1200300FA03FC20FA02F001FA03FE40EA0E0021FA02F11444C1E600BFD9
:401A800070B54FF0FF0C4CF4E06C1CEA11541DBF1CEA135594EA0C0F95EA0C0F00F0DEF82C4481EA030621EA4C5123EA4C5350EA013518BF52EA033541F4801143F48013FA
:401AC00038D0A0FB02CE4FF00005E1FB02E506F00042E0FB03E54FF00006E1FB03569CF0000F18BF4EF0010EA4F1FF04B6F5007F64F5407404D25FEA4E0E6D4146EB060603
:401B000042EAC62141EA55514FEAC52040EA5E504FEACE2EB4F1FD0C88BFBCF5E06F1ED8BEF1004F08BF5FEA500E50F1000041EB045170BD06F0004646EA010140EA0200B6
:401B400081EA0301B4EB5C04C2BFD4EB0C0541EA045170BD41F480114FF0000E013C00F3AB8014F1360FDEBF002001F0004170BDC4F10004203C35DA0C341BDC04F11404BD
:401B8000C4F1200500FA05F320FA04F001FA05F240EA020001F0004221F0004110EBD37021FA04F642EB06015EEA430E08BF20EAD37070BDC4F10C04C4F1200500FA04F3B7
:401BC00020FA05F001FA04F240EA020001F0004110EBD37041F100015EEA430E08BF20EAD37070BDC4F1200500FA05F24EEA020E20FA04F301FA05F243EA020321FA04F0E5
:401C000001F0004121FA04F220EA020000EBD3705EEA430E08BF20EAD37070BD94F0000F0FD101F00046400041EB010111F4801F08BF013CF7D041EA060195F0000F18BF29
:401C4000704703F00046520043EB030313F4801F08BF013DF7D043EA0603704794EA0C0F0CEA135518BF95EA0C0F0CD050EA410618BF52EA4306D1D181EA030101F000412B
:401C80004FF0000070BD50EA410606BF1046194652EA430619D094EA0C0F02D150EA013613D195EA0C0F05D152EA03361CBF104619460AD181EA030101F0004141F0FE412D
:401CC00041F470014FF0000070BD41F0FE4141F4780170BD70B54FF0FF0C4CF4E06C1CEA11541DBF1CEA135594EA0C0F95EA0C0F00F0A7F8A4EB050481EA030E52EA03358D
:401D00004FEA013100F088804FEA03334FF0805545EA131343EA12634FEA022245EA111545EA10654FEA00260EF000419D4208BF964244F1FD0404F5407402D25B084FEA01
:401D40003202B61A65EB03055B084FEA32024FF480104FF4002CB6EB020E75EB030E22BFB61A754640EA0C005B084FEA3202B6EB020E75EB030E22BFB61A754640EA5C004D
:401D80005B084FEA3202B6EB020E75EB030E22BFB61A754640EA9C005B084FEA3202B6EB020E75EB030E22BFB61A754640EADC0055EA060E18D04FEA051545EA16754FEA1A
:401DC00006164FEAC30343EA52734FEAC2025FEA1C1CC0D111F4801F0BD141EA00014FF000004FF0004CB6E711F4801F04BF01430020B4F1FD0C88BFBCF5E06F3FF6AFAE62
:401E0000B5EB030C04BFB6EB020C5FEA500C50F1000041EB045170BD0EF0004E4EEA113114EB5C04C2BFD4EB0C0541EA045170BD41F480114FF0000E013C90E645EA060EC1
:401E40008DE60CEA135594EA0C0F08BF95EA0C0F3FF43BAF94EA0C0F0AD150EA01347FF434AF95EA0C0F7FF425AF104619462CE795EA0C0F06D152EA03353FF4FDAE10467F
:401E8000194622E750EA410618BF52EA43067FF4C5AE50EA41047FF40DAF52EA43057FF4EBAE12E74FF0FF3C06E000BF4FF0010C02E000BF4FF0010C4DF804CD4FEA410CCC
:401EC0007FEA6C5C4FEA430C18BF7FEA6C5C1BD001B050EA410C0CBF52EA430C91EA030F02BF90EA020F0020704710F1000F91EA030F58BF994208BF90422CBFD8176FEA9D
:401F0000E37040F0010070474FEA410C7FEA6C5C02D150EA013C07D14FEA430C7FEA6C5CD6D152EA033CD3D05DF8040B704700BF8446104662468C461946634600E000BFF4
:401F400001B5FFF7B7FF002848BF10F1000F01BD4DF808EDFFF7F4FF0CBF012000205DF808FB00BF4DF808EDFFF7EAFF34BF012000205DF808FB00BF4DF808EDFFF7E0FF49
:401F800094BF012000205DF808FB00BF4DF808EDFFF7CEFF94BF012000205DF808FB00BF4DF808EDFFF7C4FF34BF012000205DF808FB00BF4FEA410212F5001215D211D52E
:401FC0006FF47873B3EB625212D94FEAC12343F0004343EA505311F0004F23FA02F018BF404270474FF00000704750EA013005D111F0004008BF6FF0004070474FF00000B0
:40200000704700BF4A0011D212F5001211D20DD56FF47873B3EB62520ED44FEAC12343F0004343EA505323FA02F070474FF00000704750EA013002D14FF0FF3070474FF0DC
:40204000000070474FEA4102B2F1E04324BFB3F5001CDCF1FE5C0DD901F0004C4FEAC0024CEA5070B2F1004F40EB830008BF20F00100704711F0804F21D113F13872BCBF6B
:4020800001F00040704741F480114FEA5252C2F11802C2F1200C10FA0CF320FA02F018BF40F001004FEAC1234FEAD32303FA0CFC40EA0C0023FA02F34FEA4303CCE77FEA98
:4020C000625307D150EA01331EBF4FF0FE4040F44000704701F0004040F0FE4040F40000704700BF4FF0FF3C06E000BF4FF0010C02E000BF4FF0010C4DF804CD4FEA40022E
:402100004FEA41037FEA226C18BF7FEA236C11D001B052EA530C18BF90EA010F58BFB2EB030088BFC81738BF6FEAE17018BF40F0010070477FEA226C02D15FEA402C05D13C
:402140007FEA236CE4D15FEA412CE1D05DF8040B704700BF844608466146FFE70FB5FFF7C9FF002848BF10F1000F0FBD4DF808EDFFF7F4FF0CBF012000205DF808FB00BFF9
:402180004DF808EDFFF7EAFF34BF012000205DF808FB00BF4DF808EDFFF7E0FF94BF012000205DF808FB00BF4DF808EDFFF7D2FF94BF012000205DF808FB00BF4DF808ED1B
:4021C000FFF7C8FF34BF012000205DF808FB00BF014B1868704700BF8081FF1F70B50E4B0E4D0024ED1AAD101E46AC4204D056F8242090470134F8E700F0CEFC084D094BAF
:402200000024ED1AAD101E46AC4204D056F8242090470134F8E770BDA42B0000A42B0000AC2B0000A42B000010B50023934203D0CC5CC4540133F9E710BD0244034693428D
:4022400002D003F8011BFAE7704700000EB400B54FF402719CB0ADF814106FF00041049107914FF6FF711DABADF81610084953F8042B02900690086802A9019300F066F896
:40228000029B00221A701CB05DF804EB03B070478081FF1F2DE9F0478D688146AB420C4692461F4643D38B8913F4906F3DD0266809690222C1EB0608666906EB460696FBFF
:4022C000F2F608F101023A44964238BF16465B050FD5314600F01AFB054698B121694246FFF7A2FFA38923F4906343F08003A38113E0324600F05EFB054670B94846216904
:4023000000F0C0FA0C23C9F80030A3894FF0FF3043F04003A381BDE8F087256166614544C8EB06062560A6603D46AF4200D23D462A462068514600F089FAA36800205B1BF7
:40234000A36023681D442560BDE8F0872DE9F0439DB003938B8907461C060D4616460CD50B6953B9402100F0D1FA2860286110B90C233B60C7E040236B6100230993202376
:402380008DF8293030238DF82A3033461C4613F8012B1AB9B4EB06090FD002E0252AF5D1F8E73846294632464B46FFF773FF013000F0A480099B4B4409932378002B00F09D
:4023C0009D8000234FF0FF3204930793059206938DF853301A9304F101094D4E4C4630462178052200F024FA09F10109049B28B1861B0120B04003430493EEE7D90644BFE5
:4024000020228DF853201A0744BF2B228DF8532022782A2A02D0079B21460EE0039A111D12680391002A01DB079204E0524243F002030792049301340AE00C4622780131AD
:40244000303A092A03D80A2000FB0323F5E7079323782E2B19D163782A2B09D1039B02341A1D1B680392002BB8BF4FF0FF330BE0611C00230C4622780131303A092A03D8E4
:402480000A2000FB0323F5E70593224E21783046032200F0CDF930B1861B4020B040049B01340343049321781B480622661C8DF8281000F0BDF988B1184B33B9039B073317
:4024C00023F007030833039314E003AB0093384604A92A46124BAFF3008007E003AB0093384604A92A460E4B00F08EF8B0F1FF3F804603D0099B4344099346E7AB895B060C
:4025000001D4099801E04FF0FF301DB0BDE8F083622B0000682B00006C2B000000000000952200002DE9F84315461F468A680B6906469A42A8BF13462B6091F843200C465B
:40254000DDF820800AB101332B602368990602D52B6802332B60236813F006091DD094F843302268003318BF012392061FD5E118302081F843005A1C94F845102244023354
:4025800082F8431013E03046394604F119020123C047013007D009F10109E2682B68D31A9945F0DBDBE74FF0FF30BDE8F8833046394604F14302C0470130F4D023682A6814
:4025C00003F00603E168042B08BFC2EB01052369A2680CBF25EAE57500259A42C4BFC3EB0203ED184FF00009A9450ADA3046394604F11A020123C0470130D4D009F10109C3
:40260000F2E70020BDE8F8832DE9FF470E7E80466E2E0C4691469A460C9D01F1430000F0A58011D8632E22D009D8002E00F0AF80582E40F0BF8081F845607B4A4FE0642E08
:402640001ED0692E1CD0B5E0732E00F0A48009D86F2E2BD0702E40F0AD800B6843F020030B6038E0752E21D0782E34D0A2E02B6801F142071A1D1B682A6081F842309DE0A5
:4026800022682B6812F0800F03D01A1D2A601D6805E05106F9D51A1D2A60B3F90050002D39DA2D236D4284F8433034E022682B6812F0800F03D01A1D2A601D6804E0520647
:4026C000F9D51A1D2A601D88237E574A6F2B14BF0A2308231BE07823544A84F845302368296813F0800F01F104062E6001D00D6802E05F06FBD50D88DE0744BF43F0200312
:4027000023601DB9236823F0200323601023002184F8431001E0444A0A236668002EA66003DB216821F00401216005B96EB104F14201B5FBF3F603FB1655555D0F4601F826
:4027400001593546002EF4D100E00746082B0AD12368DD0707D5626823699A4203DC302307F8013C013FC01B20612CE009682B6811F0800F626904D0191D29601B681A60D4
:4027800005E04906F8D5191D29601B681A8000232361074617E02B681A1D2A601F68384600F03EF963682061984288BF23612369636005E004F1420784F8426001232361A8
:4027C000002384F84330CDF800A04046214603AA4B46FFF7A7FE013002D14FF0FF301FE0404649463A462369D0470130F5D023689B0705D4E068039B9842B8BF18460FE073
:402800000025E268039BD31A9D42F3DA4046494604F119020123D0470130DED00135F0E704B0BDE8F08700BF732B0000842B000010B5C9B202449042034605D01C7801308F
:402840008C42F8D1184610BD002010BD814270B501D300230EE08C18A042FAD28518134613F1FF3305D351426618F65C2944CE54F6E770BD934203D0CC5CC4540133F9E78E
:4028800070BD000030B500293CD051F8042C0B1F1D49002AB8BF9B180A680C4612B95A600B6030BD93420DD219685818904203D15A581144426819605A60236030BD994259
:4028C00003D80A4651680029F9D1146815199D420AD11B682344D0188842136012D10868034413604B680CE002D90C23036030BD18681C188C4203D10C6849682044186031
:402900005960536030BD00BFB481FF1F70B5CD1C25F0030508350C2D38BF0C25002D06463FDB8D423DD3214B1C6818462146A1B10B685B1B0ED40B2B03D90B60CC18CD50A1
:402940001FE08C4202D1626802601AE04B6863600C4616E00C464968E9E7154C23681BB9304600F04DF820602946304600F048F8431C014615D0C41C24F0030484420AD1D9
:40298000256004F10B00231D20F00700C31A0BD05A42E25070BD3046611A00F031F80130EED10C233360002070BD00BFB481FF1FB081FF1FF8B5064614460D4621B9114647
:4029C000BDE8F840FFF7A2BF1AB9FFF75BFF2046F8BD00F02DF8A0420ED230462146FFF795FF074650B129462246FFF71DFC30462946FFF747FF01E02846F8BD3846F8BD9B
:402A000038B5064C0023054608462360FDF7D6FC431C02D1236803B12B6038BDD881FF1F034613F8012B002AFBD1181A0138704751F8040C002802DA04390B5818440438BD
:402A4000704700000000000042656172696E673A202564200A0D000048656C6C6F20576F726C642E205468697320697320616E205541525420544553542063616E20796FCA
:402A80007520736565206D652E000000506C656173652073656E64206D65206461746120616E6420492077696C6C204563686F206974206261636B005465737420493243F5
:402AC000200A0D00C84900401900105100401000305100401000505100401000F0510040100080000140000C000D0140000300140140000800400140000A004C014000029C
:402B0000005001402000000000000140780900488000800C0140F8090048800000000000E2652F227F2B7A3C075C143326A6813CBDCBF07A8807703C075C143326A6913C29
:402B40004FBB610567ACDD3F182D4454FB21E93F9BF681D20B73EF3F182D4454FB21F93F4300232D302B2000686C4C006566674546470030313233343536373839414243CF
:402B8000444546003031323334353637383961626364656600000000F8B500BFF8BC08BC9E4670474D00000039040000F8B500BFF8BC08BC9E46704729000000D02B000038
:402BC0000881FF1F80000000580000000000000000000000E081FF1F0000E02EC05D00001800000000366E01000000000000000000000000000000000000000000000000EF
:402C00000000000000000000602B00000000000000000000000000000000000000000000000000000000000000000000000000000000000000000000000000000000000009
:402C400000000000000000002081FF1F0000000000000000000000000000000000000000000000000000000000000000000000000000000000000000000000000000000095
:402C80000000000000000000000000000000000000000000000000000000000000000000000000000000000000000000000000000000000000000000000000000000000014
:402CC00000000000000000000000000000000000000000000000000000000000000000000000000000000000000000000000000000000000000000000000000000000000D4
:402D00000000000000000000000000000000000000000000000000000000000000000000000000000000000000000000000000000000000000000000000000000000000093
:402D40000000000000000000000000000000000000000000000000000000000000000000000000000000000000000000000000000000000000000000000000000000000053
:020000040003F7
:0200000480007A
:400000000B5200400764004001650040090001402D01014060020140460301405304014037050140050701405808014042090140540A0140410B0140170C0140340D01404B
:400040004D0E0140300F0140011501405E18014039190140011B0140064001400D4101400642014005430140134401401045014009460140044701400148014002490140DE
:400080000B4C0140014D014007500140025101400050011010021102140124043052316434036018610880388462880F89388D728E0D8F0D880F85018B018F019501B5014A
:4000C000B920D904DC20DF01004802040A840B201101120A1308180419012018210122102708280829442B803020324033053408384039133B283C483D1040984110420448
:40010000488449504A025208590160046302C007C20EC40FCA0FCC4FCE7FD007D20CD601D80C070216011A011F0127032E023201330334024020410549FF4AFF4BFF4DA0B4
:400140004F0450185280580459045A045B045C115D115F01604062C06440654066C068C06AC06CC06EC0832084028540860489788A018D608E028F08900491609202931090
:4001800094049506980499069D049F02A122A201A305A540A806A938AB40AC06AF18B001B101B378B406B706BB08BE01C020C105C501C725C835C9FFCAFFCBFFCDAFCE0F19
:4001C000CF04D018D804D904DA04DC22DD01DF01E040E2C0E440E540E6C0E8C0EAC0ECC0EEC00008012003020A040B980D2410821208178019201B011D201E101F10202012
:4002000021012240272029542A012B022F103022324033043680384039223B883C203D103F04412045204A024B044E0251045282778080808120841287208E1092209440D9
:4002400095309680970899109A019C809D449F04A084A420A701AA15AB80AF01C007C26EC48BCA4FCC1FCE4FD024D218E61004020502080109020C010D020F011401150341
:4002800019011B0224022502270128012C022F013001310336023B0A3E014020410349FF4AFF4BFF4DA04F04501856025713580459045A045B045C225D215F01604062C06D
:4002C0006440654066C068C06AC06CC06EC0860692049E02AE01B004B202B401C020C103C510C625C80EC9FFCAFFCBFFCDAFCE0FCF04D018D280D804DA04DB04DC01DD11F6
:40030000DF01E040E2C0E440E540E6C0E8C0EAC0ECC0EEC00068020404040A200F8210221208178019411C041E101F012040220829402A04321838403A083B10400442208E
:400340004310462047104F0256205740590168266B047104720C7310778079207A08922094409520960497109D449F04A010A420A608C027C294C487CA0ACC06CE0ED066CE
:40038000D601B610B701E602EA40EE10000602080301061008060A180C140E08130115011E0A200123012406260829013101321E34013A083E103F014061410345E0460C4C
:4003C000470B481649FF4AFF4BFF4EF04F44500C5401580459045A045B045C035D335F0166C06A406B0287018B018E02930297029A01A601B501B603B702BE40BF50C0469F
:40040000C103C205C401C50EC70CC811C9FFCAFFCBFFCC62CDA0CEF0CF41D00CD418D604D804D904DA04DB04DD33DF01E640E702E910EA30EB10ED10EE10EF12018005245E
:40044000064007010A080F0210101501170818011E081F042004218024402D202F84300A3201370938103B043E023F024001410842404602470848064B044D2150085648D2
:40048000578059025C605D015E0860046180634087409010924A9708981099869B099D609E08A004A108A301B004B302C0F1C282C434CAA0CCC3CE86D05BD22CD6F1D80D49
:4004C000008002180454062208290A420C1A0E050F021098110218801A181B021D012218246728672C982D0230183280330234603501360739083B023E043F105804590416
:400500005C335F0183258424864088418A308B588C708E09915A920C932494409523974C9C02A431A644A708A850A923AB54B07CB203B303B51CB76CB808B908BBA0BF0415
:40054000C002C640C9FFCA07CBFFCC40CD20CEF0CF05D008D804D904DA04DC33DD03DF01E040E1A8E240E3200004018002C0030805240701080109200A440D020F22111451
:400580001202130216081708180419821A181C201D061F01201021102202272928012C202F043160320237093A403C203F0247205420571185108D088E02911492469618AC
:4005C000970298109D80A004A280A308A508A602AE10B010B110B309C0EFC2BAC46FCA68CCCDCEA8D020E002EC082D0135013F104040410249FF4AFF4BFF4DA04F0450187E
:4006000059045A045F01604062C06440654066C068C06AC06CC06EC00180028003280A6910801202132818401A451B2020082291261029102B212F013108328033113868BB
:400640003A02408041204480452047024804491551205A1069146B117094720273289B029D05A520A840AA10B010B110C00FC20FC40FCA1ECC0FCE0FD0A5D604E801EC04B8
:40068000030417031A011F0222012A042B042D012E023004310233043401360237013E104010410649FF4AFF4BFF4DA04F0450185405580459045A045B045F01604062C063
:4006C0006440654066C068C06AC06CC06EC08304870293019A01AB04AC01B001B102B304B701BF04C050C102C5D1C702C813C9FFCAFFCBFFCDAFCE0FCF04D018D405D8047D
:40070000D904DA04DB04DF01E040E2C0E440E540E6C0E8C0EAC0ECC0EEC009200F08114012081302178018011A061B011E80206022402580260427822B052C0831843208EB
:40074000370138013C013F084001460848084E014F095408560859015A845E885F01682069606E106F118C208F10C242C48BCA2CCC8ACEC1D028D214D6DBEA010110050A64
:40078000060107040B080C011103130C19031A011B041D031F04260127052C0130013310370F3B803E013F044043410145EC46B0480B49FF4AFF4BFF4EF04F44500C540128
:4007C000580459045A045B045C205D225F0166C06A406B028030820C841C85728622870C8B0D8D078E038F389409961098149D079F58A010A320A440A770AC2CAE11B168AF
:40080000B303B460B53CB61FB820B908BB22BF04C003C540C9FFCA07CBFFCC40CD20CEF0CF05D008D804D904DA04DC22DD02DF01E040E1A8E240E320000401800280040430
:40084000070209180C100D080F281080121013801610178019C01B101E802044210423802684270229012B102F2032803430378238643C043D013F2041044610478248801B
:4008800049014D014F0850105210532055105C205D015E889D40A820AB80C0ADC246C4ADCA43CCB8CEEED0D2D6F0EA010202030232203620C040CC30590864016604840137
:4008C0008E04A620AA02AB02AE02D6C0D880E240E8E03E1055109D08A620CE20D44086209610A620B518E64000010502510454205B885D086102660476107B028D028F088B
:40090000C00CD407D603D803DC01DE04E40A000857019001950898089F80A420A908AA04B008B102B210B302C008D604EC0587809001950898089F80A420AF01B004EA04C0
:40094000900195089808A4209610AA10EA8010201320150878087C01900195089808A420C40EDE03AB20000F08060A060C080E0910041C04000F03C0000B007003040000AE
:4009800001040003000703000211008800380300033800000022008803030004000404000007040000000303033800C00407000000000020000010046502040003C0000ED1
:4009C00012FFFFFF62A0F0410C00000018000000040404042222000100000000000040020010301000101012000000000000000000000000000000004F0410004C062300A0
:400A0000410280000311000673080C0000173300020800000006401108000000040700100C0000117F0800000F0700007C08801600002280000000004002000000D12000DB
:400A40000BFFFFFF00AF0F04180000000000021104040404333000014000C0004040C000C000C000C000C0000000000000000000000000000000000000D0D000D00000005D
:400A800000383800380000000200010202000200000000000400000000000000070000F4F700F7000000000000000000000000000000000000000000000000000000000098
:400AC00000000000000000000000000000000000000000000000000000000000000000000000000000000000000000000000000000000000000000000000000000000000F6
:400B000000000000000000000000000000000000000000000000000000000000000000000000000000000000000000000000000000000000000000000000000000000000B5
:400B40000000000000000000000000000000000000000000000000000000000000000000000000000000000000000000000000000000000000000000000000000000000075
:400B80000000000000000000000000000000000000000000000000000000000000000000000000000000000000000000000000000000000000000000000000000000000035
:0200000490006A
:0400000000004005B7
:0200000490105A
:04000000BC90ACAF55
:0200000490303A
:020000001DF9E8
:0200000490402A
:4000000000000000000000000000000000000000000000000000000000000000000000000000000000000000000000000000000000000000000000000000000000000000C0
:400040000000000000000000000000000000000000000000000000000000000000000000000000000000000000000000000000000000000000000000000000000000000080
:400080000000000000000000000000000000000000000000000000000000000000000000000000000000000000000000000000000000000000000000000000000000000040
:4000C0000000000000000000000000000000000000000000000000000000000000000000000000000000000000000000000000000000000000000000000000000000000000
:0200000490501A
:0C00000000012E16006900012E2A1E626D
:00000001FF